{
  "abi": [
    {
      "type": "constructor",
      "inputs": [
        {
          "name": "_nft",
          "type": "address",
          "internalType": "address"
        },
        {
          "name": "_name",
          "type": "string",
          "internalType": "string"
        },
        {
          "name": "_symbol",
          "type": "string",
          "internalType": "string"
        }
      ],
      "stateMutability": "nonpayable"
    },
    {
      "type": "function",
      "name": "allowance",
      "inputs": [
        {
          "name": "owner",
          "type": "address",
          "internalType": "address"
        },
        {
          "name": "spender",
          "type": "address",
          "internalType": "address"
        }
      ],
      "outputs": [
        {
          "name": "",
          "type": "uint256",
          "internalType": "uint256"
        }
      ],
      "stateMutability": "view"
    },
    {
      "type": "function",
      "name": "approve",
      "inputs": [
        {
          "name": "spender",
          "type": "address",
          "internalType": "address"
        },
        {
          "name": "value",
          "type": "uint256",
          "internalType": "uint256"
        }
      ],
      "outputs": [
        {
          "name": "",
          "type": "bool",
          "internalType": "bool"
        }
      ],
      "stateMutability": "nonpayable"
    },
    {
      "type": "function",
      "name": "balanceOf",
      "inputs": [
        {
          "name": "account",
          "type": "address",
          "internalType": "address"
        }
      ],
      "outputs": [
        {
          "name": "",
          "type": "uint256",
          "internalType": "uint256"
        }
      ],
      "stateMutability": "view"
    },
    {
      "type": "function",
      "name": "claimYield",
      "inputs": [],
      "outputs": [],
      "stateMutability": "nonpayable"
    },
    {
      "type": "function",
      "name": "claimed",
      "inputs": [
        {
          "name": "",
          "type": "address",
          "internalType": "address"
        }
      ],
      "outputs": [
        {
          "name": "",
          "type": "uint256",
          "internalType": "uint256"
        }
      ],
      "stateMutability": "view"
    },
    {
      "type": "function",
      "name": "decimals",
      "inputs": [],
      "outputs": [
        {
          "name": "",
          "type": "uint8",
          "internalType": "uint8"
        }
      ],
      "stateMutability": "view"
    },
    {
      "type": "function",
      "name": "depositYield",
      "inputs": [
        {
          "name": "amount",
          "type": "uint256",
          "internalType": "uint256"
        }
      ],
      "outputs": [],
      "stateMutability": "nonpayable"
    },
    {
      "type": "function",
      "name": "fractionalize",
      "inputs": [
        {
          "name": "tokenId",
          "type": "uint256",
          "internalType": "uint256"
        },
        {
          "name": "shareCount",
          "type": "uint256",
          "internalType": "uint256"
        }
      ],
      "outputs": [],
      "stateMutability": "nonpayable"
    },
    {
      "type": "function",
      "name": "isLocked",
      "inputs": [],
      "outputs": [
        {
          "name": "",
          "type": "bool",
          "internalType": "bool"
        }
      ],
      "stateMutability": "view"
    },
    {
      "type": "function",
      "name": "lockedTokenId",
      "inputs": [],
      "outputs": [
        {
          "name": "",
          "type": "uint256",
          "internalType": "uint256"
        }
      ],
      "stateMutability": "view"
    },
    {
      "type": "function",
      "name": "name",
      "inputs": [],
      "outputs": [
        {
          "name": "",
          "type": "string",
          "internalType": "string"
        }
      ],
      "stateMutability": "view"
    },
    {
      "type": "function",
      "name": "owner",
      "inputs": [],
      "outputs": [
        {
          "name": "",
          "type": "address",
          "internalType": "address"
        }
      ],
      "stateMutability": "view"
    },
    {
      "type": "function",
      "name": "pendingYield",
      "inputs": [
        {
          "name": "user",
          "type": "address",
          "internalType": "address"
        }
      ],
      "outputs": [
        {
          "name": "",
          "type": "uint256",
          "internalType": "uint256"
        }
      ],
      "stateMutability": "view"
    },
    {
      "type": "function",
      "name": "propertyNFT",
      "inputs": [],
      "outputs": [
        {
          "name": "",
          "type": "address",
          "internalType": "contract IERC721"
        }
      ],
      "stateMutability": "view"
    },
    {
      "type": "function",
      "name": "renounceOwnership",
      "inputs": [],
      "outputs": [],
      "stateMutability": "nonpayable"
    },
    {
      "type": "function",
      "name": "stablecoin",
      "inputs": [],
      "outputs": [
        {
          "name": "",
          "type": "address",
          "internalType": "contract IERC20"
        }
      ],
      "stateMutability": "view"
    },
    {
      "type": "function",
      "name": "symbol",
      "inputs": [],
      "outputs": [
        {
          "name": "",
          "type": "string",
          "internalType": "string"
        }
      ],
      "stateMutability": "view"
    },
    {
      "type": "function",
      "name": "totalDeposited",
      "inputs": [],
      "outputs": [
        {
          "name": "",
          "type": "uint256",
          "internalType": "uint256"
        }
      ],
      "stateMutability": "view"
    },
    {
      "type": "function",
      "name": "totalShares",
      "inputs": [],
      "outputs": [
        {
          "name": "",
          "type": "uint256",
          "internalType": "uint256"
        }
      ],
      "stateMutability": "view"
    },
    {
      "type": "function",
      "name": "totalSupply",
      "inputs": [],
      "outputs": [
        {
          "name": "",
          "type": "uint256",
          "internalType": "uint256"
        }
      ],
      "stateMutability": "view"
    },
    {
      "type": "function",
      "name": "transfer",
      "inputs": [
        {
          "name": "to",
          "type": "address",
          "internalType": "address"
        },
        {
          "name": "value",
          "type": "uint256",
          "internalType": "uint256"
        }
      ],
      "outputs": [
        {
          "name": "",
          "type": "bool",
          "internalType": "bool"
        }
      ],
      "stateMutability": "nonpayable"
    },
    {
      "type": "function",
      "name": "transferFrom",
      "inputs": [
        {
          "name": "from",
          "type": "address",
          "internalType": "address"
        },
        {
          "name": "to",
          "type": "address",
          "internalType": "address"
        },
        {
          "name": "value",
          "type": "uint256",
          "internalType": "uint256"
        }
      ],
      "outputs": [
        {
          "name": "",
          "type": "bool",
          "internalType": "bool"
        }
      ],
      "stateMutability": "nonpayable"
    },
    {
      "type": "function",
      "name": "transferOwnership",
      "inputs": [
        {
          "name": "newOwner",
          "type": "address",
          "internalType": "address"
        }
      ],
      "outputs": [],
      "stateMutability": "nonpayable"
    },
    {
      "type": "function",
      "name": "unfractionalize",
      "inputs": [
        {
          "name": "to",
          "type": "address",
          "internalType": "address"
        }
      ],
      "outputs": [],
      "stateMutability": "nonpayable"
    },
    {
      "type": "event",
      "name": "Approval",
      "inputs": [
        {
          "name": "owner",
          "type": "address",
          "indexed": true,
          "internalType": "address"
        },
        {
          "name": "spender",
          "type": "address",
          "indexed": true,
          "internalType": "address"
        },
        {
          "name": "value",
          "type": "uint256",
          "indexed": false,
          "internalType": "uint256"
        }
      ],
      "anonymous": false
    },
    {
      "type": "event",
      "name": "OwnershipTransferred",
      "inputs": [
        {
          "name": "previousOwner",
          "type": "address",
          "indexed": true,
          "internalType": "address"
        },
        {
          "name": "newOwner",
          "type": "address",
          "indexed": true,
          "internalType": "address"
        }
      ],
      "anonymous": false
    },
    {
      "type": "event",
      "name": "Transfer",
      "inputs": [
        {
          "name": "from",
          "type": "address",
          "indexed": true,
          "internalType": "address"
        },
        {
          "name": "to",
          "type": "address",
          "indexed": true,
          "internalType": "address"
        },
        {
          "name": "value",
          "type": "uint256",
          "indexed": false,
          "internalType": "uint256"
        }
      ],
      "anonymous": false
    },
    {
      "type": "error",
      "name": "ERC20InsufficientAllowance",
      "inputs": [
        {
          "name": "spender",
          "type": "address",
          "internalType": "address"
        },
        {
          "name": "allowance",
          "type": "uint256",
          "internalType": "uint256"
        },
        {
          "name": "needed",
          "type": "uint256",
          "internalType": "uint256"
        }
      ]
    },
    {
      "type": "error",
      "name": "ERC20InsufficientBalance",
      "inputs": [
        {
          "name": "sender",
          "type": "address",
          "internalType": "address"
        },
        {
          "name": "balance",
          "type": "uint256",
          "internalType": "uint256"
        },
        {
          "name": "needed",
          "type": "uint256",
          "internalType": "uint256"
        }
      ]
    },
    {
      "type": "error",
      "name": "ERC20InvalidApprover",
      "inputs": [
        {
          "name": "approver",
          "type": "address",
          "internalType": "address"
        }
      ]
    },
    {
      "type": "error",
      "name": "ERC20InvalidReceiver",
      "inputs": [
        {
          "name": "receiver",
          "type": "address",
          "internalType": "address"
        }
      ]
    },
    {
      "type": "error",
      "name": "ERC20InvalidSender",
      "inputs": [
        {
          "name": "sender",
          "type": "address",
          "internalType": "address"
        }
      ]
    },
    {
      "type": "error",
      "name": "ERC20InvalidSpender",
      "inputs": [
        {
          "name": "spender",
          "type": "address",
          "internalType": "address"
        }
      ]
    },
    {
      "type": "error",
      "name": "OwnableInvalidOwner",
      "inputs": [
        {
          "name": "owner",
          "type": "address",
          "internalType": "address"
        }
      ]
    },
    {
      "type": "error",
      "name": "OwnableUnauthorizedAccount",
      "inputs": [
        {
          "name": "account",
          "type": "address",
          "internalType": "address"
        }
      ]
    }
  ],
  "bytecode": {
    "object": "0x608060405234801561000f575f5ffd5b5060405161288038038061288083398181016040528101906100319190610388565b33828281600390816100439190610620565b5080600490816100539190610620565b5050505f73ffffffffffffffffffffffffffffffffffffffff168173ffffffffffffffffffffffffffffffffffffffff16036100c6575f6040517f1e4fbdf70000000000000000000000000000000000000000000000000000000081526004016100bd91906106fe565b60405180910390fd5b6100d58161011e60201b60201c565b508260065f6101000a81548173ffffffffffffffffffffffffffffffffffffffff021916908373ffffffffffffffffffffffffffffffffffffffff160217905550505050610717565b5f60055f9054906101000a900473ffffffffffffffffffffffffffffffffffffffff1690508160055f6101000a81548173ffffffffffffffffffffffffffffffffffffffff021916908373ffffffffffffffffffffffffffffffffffffffff1602179055508173ffffffffffffffffffffffffffffffffffffffff168173ffffffffffffffffffffffffffffffffffffffff167f8be0079c531659141344cd1fd0a4f28419497f9722a3daafe3b4186f6b6457e060405160405180910390a35050565b5f604051905090565b5f5ffd5b5f5ffd5b5f73ffffffffffffffffffffffffffffffffffffffff82169050919050565b5f61021b826101f2565b9050919050565b61022b81610211565b8114610235575f5ffd5b50565b5f8151905061024681610222565b92915050565b5f5ffd5b5f5ffd5b5f601f19601f8301169050919050565b7f4e487b71000000000000000000000000000000000000000000000000000000005f52604160045260245ffd5b61029a82610254565b810181811067ffffffffffffffff821117156102b9576102b8610264565b5b80604052505050565b5f6102cb6101e1565b90506102d78282610291565b919050565b5f67ffffffffffffffff8211156102f6576102f5610264565b5b6102ff82610254565b9050602081019050919050565b8281835e5f83830152505050565b5f61032c610327846102dc565b6102c2565b90508281526020810184848401111561034857610347610250565b5b61035384828561030c565b509392505050565b5f82601f83011261036f5761036e61024c565b5b815161037f84826020860161031a565b91505092915050565b5f5f5f6060848603121561039f5761039e6101ea565b5b5f6103ac86828701610238565b935050602084015167ffffffffffffffff8111156103cd576103cc6101ee565b5b6103d98682870161035b565b925050604084015167ffffffffffffffff8111156103fa576103f96101ee565b5b6104068682870161035b565b9150509250925092565b5f81519050919050565b7f4e487b71000000000000000000000000000000000000000000000000000000005f52602260045260245ffd5b5f600282049050600182168061045e57607f821691505b6020821081036104715761047061041a565b5b50919050565b5f819050815f5260205f209050919050565b5f6020601f8301049050919050565b5f82821b905092915050565b5f600883026104d37fffffffffffffffffffffffffffffffffffffffffffffffffffffffffffffffff82610498565b6104dd8683610498565b95508019841693508086168417925050509392505050565b5f819050919050565b5f819050919050565b5f61052161051c610517846104f5565b6104fe565b6104f5565b9050919050565b5f819050919050565b61053a83610507565b61054e61054682610528565b8484546104a4565b825550505050565b5f5f905090565b610565610556565b610570818484610531565b505050565b5b81811015610593576105885f8261055d565b600181019050610576565b5050565b601f8211156105d8576105a981610477565b6105b284610489565b810160208510156105c1578190505b6105d56105cd85610489565b830182610575565b50505b505050565b5f82821c905092915050565b5f6105f85f19846008026105dd565b1980831691505092915050565b5f61061083836105e9565b9150826002028217905092915050565b61062982610410565b67ffffffffffffffff81111561064257610641610264565b5b61064c8254610447565b610657828285610597565b5f60209050601f831160018114610688575f8415610676578287015190505b6106808582610605565b8655506106e7565b601f19841661069686610477565b5f5b828110156106bd57848901518255600182019150602085019450602081019050610698565b868310156106da57848901516106d6601f8916826105e9565b8355505b6001600288020188555050505b505050505050565b6106f881610211565b82525050565b5f6020820190506107115f8301846106ef565b92915050565b61215c806107245f395ff3fe608060405234801561000f575f5ffd5b5060043610610156575f3560e01c80638da5cb5b116100c1578063c884ef831161007a578063c884ef83146103a2578063dd62ed3e146103d2578063e9cbd82214610402578063f2fde38b14610420578063ff4537ab1461043c578063ff50abdc1461045a57610156565b80638da5cb5b146102cc578063907193fc146102ea57806395d89b4114610306578063a4e2d63414610324578063a9059cbb14610342578063c7bf19801461037257610156565b806337f768381161011357806337f76838146102305780633a98ef391461024e578063406cf2291461026c57806370a0823114610276578063715018a6146102a65780637cf4c01b146102b057610156565b806306fdde031461015a578063095ea7b3146101785780630c386fda146101a857806318160ddd146101c457806323b872dd146101e2578063313ce56714610212575b5f5ffd5b610162610478565b60405161016f91906116ec565b60405180910390f35b610192600480360381019061018d919061179d565b610508565b60405161019f91906117f5565b60405180910390f35b6101c260048036038101906101bd919061180e565b61052a565b005b6101cc6106a2565b6040516101d9919061185b565b60405180910390f35b6101fc60048036038101906101f79190611874565b6106ab565b60405161020991906117f5565b60405180910390f35b61021a6106d9565b60405161022791906118df565b60405180910390f35b6102386106e1565b6040516102459190611953565b60405180910390f35b610256610706565b604051610263919061185b565b60405180910390f35b61027461070c565b005b610290600480360381019061028b919061196c565b6108ec565b60405161029d919061185b565b60405180910390f35b6102ae610931565b005b6102ca60048036038101906102c59190611997565b610944565b005b6102d4610a93565b6040516102e191906119d1565b60405180910390f35b61030460048036038101906102ff919061196c565b610abb565b005b61030e610c22565b60405161031b91906116ec565b60405180910390f35b61032c610cb2565b60405161033991906117f5565b60405180910390f35b61035c6004803603810190610357919061179d565b610cc4565b60405161036991906117f5565b60405180910390f35b61038c6004803603810190610387919061196c565b610ce6565b604051610399919061185b565b60405180910390f35b6103bc60048036038101906103b7919061196c565b610d63565b6040516103c9919061185b565b60405180910390f35b6103ec60048036038101906103e791906119ea565b610d78565b6040516103f9919061185b565b60405180910390f35b61040a610dfa565b6040516104179190611a48565b60405180910390f35b61043a6004803603810190610435919061196c565b610e20565b005b610444610ea4565b604051610451919061185b565b60405180910390f35b610462610eaa565b60405161046f919061185b565b60405180910390f35b60606003805461048790611a8e565b80601f01602080910402602001604051908101604052809291908181526020018280546104b390611a8e565b80156104fe5780601f106104d5576101008083540402835291602001916104fe565b820191905f5260205f20905b8154815290600101906020018083116104e157829003601f168201915b5050505050905090565b5f5f610512610eb0565b905061051f818585610eb7565b600191505092915050565b610532610ec9565b60095f9054906101000a900460ff1615610581576040517f08c379a000000000000000000000000000000000000000000000000000000000815260040161057890611b08565b60405180910390fd5b5f81116105c3576040517f08c379a00000000000000000000000000000000000000000000000000000000081526004016105ba90611b70565b60405180910390fd5b60065f9054906101000a900473ffffffffffffffffffffffffffffffffffffffff1673ffffffffffffffffffffffffffffffffffffffff166323b872dd3330856040518463ffffffff1660e01b815260040161062193929190611b8e565b5f604051808303815f87803b158015610638575f5ffd5b505af115801561064a573d5f5f3e3d5ffd5b505050508160078190555080600881905550600160095f6101000a81548160ff02191690831515021790555061069e336106826106d9565b600a61068e9190611d1f565b836106999190611d69565b610f50565b5050565b5f600254905090565b5f5f6106b5610eb0565b90506106c2858285610fcf565b6106cd858585611062565b60019150509392505050565b5f6012905090565b60065f9054906101000a900473ffffffffffffffffffffffffffffffffffffffff1681565b60085481565b5f6107156106a2565b600a54610721336108ec565b61072b9190611d69565b6107359190611dd7565b90505f600b5f3373ffffffffffffffffffffffffffffffffffffffff1673ffffffffffffffffffffffffffffffffffffffff1681526020019081526020015f205490505f81836107859190611e07565b90505f81116107c9576040517f08c379a00000000000000000000000000000000000000000000000000000000081526004016107c090611e84565b60405180910390fd5b82600b5f3373ffffffffffffffffffffffffffffffffffffffff1673ffffffffffffffffffffffffffffffffffffffff1681526020019081526020015f2081905550600960019054906101000a900473ffffffffffffffffffffffffffffffffffffffff1673ffffffffffffffffffffffffffffffffffffffff1663a9059cbb33836040518363ffffffff1660e01b8152600401610868929190611ea2565b6020604051808303815f875af1158015610884573d5f5f3e3d5ffd5b505050506040513d601f19601f820116820180604052508101906108a89190611ef3565b6108e7576040517f08c379a00000000000000000000000000000000000000000000000000000000081526004016108de90611f68565b60405180910390fd5b505050565b5f5f5f8373ffffffffffffffffffffffffffffffffffffffff1673ffffffffffffffffffffffffffffffffffffffff1681526020019081526020015f20549050919050565b610939610ec9565b6109425f611152565b565b61094c610ec9565b60095f9054906101000a900460ff1661099a576040517f08c379a000000000000000000000000000000000000000000000000000000000815260040161099190611fd0565b60405180910390fd5b600960019054906101000a900473ffffffffffffffffffffffffffffffffffffffff1673ffffffffffffffffffffffffffffffffffffffff166323b872dd3330846040518463ffffffff1660e01b81526004016109f993929190611b8e565b6020604051808303815f875af1158015610a15573d5f5f3e3d5ffd5b505050506040513d601f19601f82011682018060405250810190610a399190611ef3565b610a78576040517f08c379a0000000000000000000000000000000000000000000000000000000008152600401610a6f90612038565b60405180910390fd5b80600a5f828254610a899190612056565b9250508190555050565b5f60055f9054906101000a900473ffffffffffffffffffffffffffffffffffffffff16905090565b60095f9054906101000a900460ff16610b09576040517f08c379a0000000000000000000000000000000000000000000000000000000008152600401610b0090611fd0565b60405180910390fd5b610b116106a2565b610b1a336108ec565b14610b5a576040517f08c379a0000000000000000000000000000000000000000000000000000000008152600401610b51906120d3565b60405180910390fd5b610b6b33610b666106a2565b611215565b60065f9054906101000a900473ffffffffffffffffffffffffffffffffffffffff1673ffffffffffffffffffffffffffffffffffffffff166323b872dd30836007546040518463ffffffff1660e01b8152600401610bcb93929190611b8e565b5f604051808303815f87803b158015610be2575f5ffd5b505af1158015610bf4573d5f5f3e3d5ffd5b505050505f60095f6101000a81548160ff0219169083151502179055505f6007819055505f60088190555050565b606060048054610c3190611a8e565b80601f0160208091040260200160405190810160405280929190818152602001828054610c5d90611a8e565b8015610ca85780601f10610c7f57610100808354040283529160200191610ca8565b820191905f5260205f20905b815481529060010190602001808311610c8b57829003601f168201915b5050505050905090565b60095f9054906101000a900460ff1681565b5f5f610cce610eb0565b9050610cdb818585611062565b600191505092915050565b5f5f610cf06106a2565b600a54610cfc856108ec565b610d069190611d69565b610d109190611dd7565b9050600b5f8473ffffffffffffffffffffffffffffffffffffffff1673ffffffffffffffffffffffffffffffffffffffff1681526020019081526020015f205481610d5b9190611e07565b915050919050565b600b602052805f5260405f205f915090505481565b5f60015f8473ffffffffffffffffffffffffffffffffffffffff1673ffffffffffffffffffffffffffffffffffffffff1681526020019081526020015f205f8373ffffffffffffffffffffffffffffffffffffffff1673ffffffffffffffffffffffffffffffffffffffff1681526020019081526020015f2054905092915050565b600960019054906101000a900473ffffffffffffffffffffffffffffffffffffffff1681565b610e28610ec9565b5f73ffffffffffffffffffffffffffffffffffffffff168173ffffffffffffffffffffffffffffffffffffffff1603610e98575f6040517f1e4fbdf7000000000000000000000000000000000000000000000000000000008152600401610e8f91906119d1565b60405180910390fd5b610ea181611152565b50565b60075481565b600a5481565b5f33905090565b610ec48383836001611294565b505050565b610ed1610eb0565b73ffffffffffffffffffffffffffffffffffffffff16610eef610a93565b73ffffffffffffffffffffffffffffffffffffffff1614610f4e57610f12610eb0565b6040517f118cdaa7000000000000000000000000000000000000000000000000000000008152600401610f4591906119d1565b60405180910390fd5b565b5f73ffffffffffffffffffffffffffffffffffffffff168273ffffffffffffffffffffffffffffffffffffffff1603610fc0575f6040517fec442f05000000000000000000000000000000000000000000000000000000008152600401610fb791906119d1565b60405180910390fd5b610fcb5f8383611463565b5050565b5f610fda8484610d78565b90507fffffffffffffffffffffffffffffffffffffffffffffffffffffffffffffffff81101561105c578181101561104d578281836040517ffb8f41b2000000000000000000000000000000000000000000000000000000008152600401611044939291906120f1565b60405180910390fd5b61105b84848484035f611294565b5b50505050565b5f73ffffffffffffffffffffffffffffffffffffffff168373ffffffffffffffffffffffffffffffffffffffff16036110d2575f6040517f96c6fd1e0000000000000000000000000000000000000000000000000000000081526004016110c991906119d1565b60405180910390fd5b5f73ffffffffffffffffffffffffffffffffffffffff168273ffffffffffffffffffffffffffffffffffffffff1603611142575f6040517fec442f0500000000000000000000000000000000000000000000000000000000815260040161113991906119d1565b60405180910390fd5b61114d838383611463565b505050565b5f60055f9054906101000a900473ffffffffffffffffffffffffffffffffffffffff1690508160055f6101000a81548173ffffffffffffffffffffffffffffffffffffffff021916908373ffffffffffffffffffffffffffffffffffffffff1602179055508173ffffffffffffffffffffffffffffffffffffffff168173ffffffffffffffffffffffffffffffffffffffff167f8be0079c531659141344cd1fd0a4f28419497f9722a3daafe3b4186f6b6457e060405160405180910390a35050565b5f73ffffffffffffffffffffffffffffffffffffffff168273ffffffffffffffffffffffffffffffffffffffff1603611285575f6040517f96c6fd1e00000000000000000000000000000000000000000000000000000000815260040161127c91906119d1565b60405180910390fd5b611290825f83611463565b5050565b5f73ffffffffffffffffffffffffffffffffffffffff168473ffffffffffffffffffffffffffffffffffffffff1603611304575f6040517fe602df050000000000000000000000000000000000000000000000000000000081526004016112fb91906119d1565b60405180910390fd5b5f73ffffffffffffffffffffffffffffffffffffffff168373ffffffffffffffffffffffffffffffffffffffff1603611374575f6040517f94280d6200000000000000000000000000000000000000000000000000000000815260040161136b91906119d1565b60405180910390fd5b8160015f8673ffffffffffffffffffffffffffffffffffffffff1673ffffffffffffffffffffffffffffffffffffffff1681526020019081526020015f205f8573ffffffffffffffffffffffffffffffffffffffff1673ffffffffffffffffffffffffffffffffffffffff1681526020019081526020015f2081905550801561145d578273ffffffffffffffffffffffffffffffffffffffff168473ffffffffffffffffffffffffffffffffffffffff167f8c5be1e5ebec7d5bd14f71427d1e84f3dd0314c0f7b2291e5b200ac8c7c3b92584604051611454919061185b565b60405180910390a35b50505050565b5f73ffffffffffffffffffffffffffffffffffffffff168373ffffffffffffffffffffffffffffffffffffffff16036114b3578060025f8282546114a79190612056565b92505081905550611581565b5f5f5f8573ffffffffffffffffffffffffffffffffffffffff1673ffffffffffffffffffffffffffffffffffffffff1681526020019081526020015f205490508181101561153c578381836040517fe450d38c000000000000000000000000000000000000000000000000000000008152600401611533939291906120f1565b60405180910390fd5b8181035f5f8673ffffffffffffffffffffffffffffffffffffffff1673ffffffffffffffffffffffffffffffffffffffff1681526020019081526020015f2081905550505b5f73ffffffffffffffffffffffffffffffffffffffff168273ffffffffffffffffffffffffffffffffffffffff16036115c8578060025f8282540392505081905550611612565b805f5f8473ffffffffffffffffffffffffffffffffffffffff1673ffffffffffffffffffffffffffffffffffffffff1681526020019081526020015f205f82825401925050819055505b8173ffffffffffffffffffffffffffffffffffffffff168373ffffffffffffffffffffffffffffffffffffffff167fddf252ad1be2c89b69c2b068fc378daa952ba7f163c4a11628f55a4df523b3ef8360405161166f919061185b565b60405180910390a3505050565b5f81519050919050565b5f82825260208201905092915050565b8281835e5f83830152505050565b5f601f19601f8301169050919050565b5f6116be8261167c565b6116c88185611686565b93506116d8818560208601611696565b6116e1816116a4565b840191505092915050565b5f6020820190508181035f83015261170481846116b4565b905092915050565b5f5ffd5b5f73ffffffffffffffffffffffffffffffffffffffff82169050919050565b5f61173982611710565b9050919050565b6117498161172f565b8114611753575f5ffd5b50565b5f8135905061176481611740565b92915050565b5f819050919050565b61177c8161176a565b8114611786575f5ffd5b50565b5f8135905061179781611773565b92915050565b5f5f604083850312156117b3576117b261170c565b5b5f6117c085828601611756565b92505060206117d185828601611789565b9150509250929050565b5f8115159050919050565b6117ef816117db565b82525050565b5f6020820190506118085f8301846117e6565b92915050565b5f5f604083850312156118245761182361170c565b5b5f61183185828601611789565b925050602061184285828601611789565b9150509250929050565b6118558161176a565b82525050565b5f60208201905061186e5f83018461184c565b92915050565b5f5f5f6060848603121561188b5761188a61170c565b5b5f61189886828701611756565b93505060206118a986828701611756565b92505060406118ba86828701611789565b9150509250925092565b5f60ff82169050919050565b6118d9816118c4565b82525050565b5f6020820190506118f25f8301846118d0565b92915050565b5f819050919050565b5f61191b61191661191184611710565b6118f8565b611710565b9050919050565b5f61192c82611901565b9050919050565b5f61193d82611922565b9050919050565b61194d81611933565b82525050565b5f6020820190506119665f830184611944565b92915050565b5f602082840312156119815761198061170c565b5b5f61198e84828501611756565b91505092915050565b5f602082840312156119ac576119ab61170c565b5b5f6119b984828501611789565b91505092915050565b6119cb8161172f565b82525050565b5f6020820190506119e45f8301846119c2565b92915050565b5f5f60408385031215611a00576119ff61170c565b5b5f611a0d85828601611756565b9250506020611a1e85828601611756565b9150509250929050565b5f611a3282611922565b9050919050565b611a4281611a28565b82525050565b5f602082019050611a5b5f830184611a39565b92915050565b7f4e487b71000000000000000000000000000000000000000000000000000000005f52602260045260245ffd5b5f6002820490506001821680611aa557607f821691505b602082108103611ab857611ab7611a61565b5b50919050565b7f416c7265616479206672616374696f6e616c697a6564000000000000000000005f82015250565b5f611af2601683611686565b9150611afd82611abe565b602082019050919050565b5f6020820190508181035f830152611b1f81611ae6565b9050919050565b7f536861726520636f756e74206d757374206265203e20300000000000000000005f82015250565b5f611b5a601783611686565b9150611b6582611b26565b602082019050919050565b5f6020820190508181035f830152611b8781611b4e565b9050919050565b5f606082019050611ba15f8301866119c2565b611bae60208301856119c2565b611bbb604083018461184c565b949350505050565b7f4e487b71000000000000000000000000000000000000000000000000000000005f52601160045260245ffd5b5f8160011c9050919050565b5f5f8291508390505b6001851115611c4557808604811115611c2157611c20611bc3565b5b6001851615611c305780820291505b8081029050611c3e85611bf0565b9450611c05565b94509492505050565b5f82611c5d5760019050611d18565b81611c6a575f9050611d18565b8160018114611c805760028114611c8a57611cb9565b6001915050611d18565b60ff841115611c9c57611c9b611bc3565b5b8360020a915084821115611cb357611cb2611bc3565b5b50611d18565b5060208310610133831016604e8410600b8410161715611cee5782820a905083811115611ce957611ce8611bc3565b5b611d18565b611cfb8484846001611bfc565b92509050818404811115611d1257611d11611bc3565b5b81810290505b9392505050565b5f611d298261176a565b9150611d34836118c4565b9250611d617fffffffffffffffffffffffffffffffffffffffffffffffffffffffffffffffff8484611c4e565b905092915050565b5f611d738261176a565b9150611d7e8361176a565b9250828202611d8c8161176a565b91508282048414831517611da357611da2611bc3565b5b5092915050565b7f4e487b71000000000000000000000000000000000000000000000000000000005f52601260045260245ffd5b5f611de18261176a565b9150611dec8361176a565b925082611dfc57611dfb611daa565b5b828204905092915050565b5f611e118261176a565b9150611e1c8361176a565b9250828203905081811115611e3457611e33611bc3565b5b92915050565b7f4e6f7468696e6720746f20636c61696d000000000000000000000000000000005f82015250565b5f611e6e601083611686565b9150611e7982611e3a565b602082019050919050565b5f6020820190508181035f830152611e9b81611e62565b9050919050565b5f604082019050611eb55f8301856119c2565b611ec2602083018461184c565b9392505050565b611ed2816117db565b8114611edc575f5ffd5b50565b5f81519050611eed81611ec9565b92915050565b5f60208284031215611f0857611f0761170c565b5b5f611f1584828501611edf565b91505092915050565b7f5472616e73666572206661696c656400000000000000000000000000000000005f82015250565b5f611f52600f83611686565b9150611f5d82611f1e565b602082019050919050565b5f6020820190508181035f830152611f7f81611f46565b9050919050565b7f4e6f204e4654206c6f636b6564000000000000000000000000000000000000005f82015250565b5f611fba600d83611686565b9150611fc582611f86565b602082019050919050565b5f6020820190508181035f830152611fe781611fae565b9050919050565b7f4465706f736974206661696c65640000000000000000000000000000000000005f82015250565b5f612022600e83611686565b915061202d82611fee565b602082019050919050565b5f6020820190508181035f83015261204f81612016565b9050919050565b5f6120608261176a565b915061206b8361176a565b925082820190508082111561208357612082611bc3565b5b92915050565b7f4d757374206f776e20616c6c20736861726573000000000000000000000000005f82015250565b5f6120bd601383611686565b91506120c882612089565b602082019050919050565b5f6020820190508181035f8301526120ea816120b1565b9050919050565b5f6060820190506121045f8301866119c2565b612111602083018561184c565b61211e604083018461184c565b94935050505056fea26469706673582212201fe9128aa4869c41801c055ded810c208211315414aabd984f436e2dc77e956d64736f6c634300081e0033",
    "linkReferences": {}
  },
  "methodIdentifiers": {
    "allowance(address,address)": "dd62ed3e",
    "approve(address,uint256)": "095ea7b3",
    "balanceOf(address)": "70a08231",
    "claimYield()": "406cf229",
    "claimed(address)": "c884ef83",
    "decimals()": "313ce567",
    "depositYield(uint256)": "7cf4c01b",
    "fractionalize(uint256,uint256)": "0c386fda",
    "isLocked()": "a4e2d634",
    "lockedTokenId()": "ff4537ab",
    "name()": "06fdde03",
    "owner()": "8da5cb5b",
    "pendingYield(address)": "c7bf1980",
    "propertyNFT()": "37f76838",
    "renounceOwnership()": "715018a6",
    "stablecoin()": "e9cbd822",
    "symbol()": "95d89b41",
    "totalDeposited()": "ff50abdc",
    "totalShares()": "3a98ef39",
    "totalSupply()": "18160ddd",
    "transfer(address,uint256)": "a9059cbb",
    "transferFrom(address,address,uint256)": "23b872dd",
    "transferOwnership(address)": "f2fde38b",
    "unfractionalize(address)": "907193fc"
  },
  "id": 18
}