{
  "abi": [
    {
      "type": "constructor",
      "inputs": [
        {
          "name": "_nft",
          "type": "address",
          "internalType": "address"
        },
        {
          "name": "_name",
          "type": "string",
          "internalType": "string"
        },
        {
          "name": "_symbol",
          "type": "string",
          "internalType": "string"
        }
      ],
      "stateMutability": "nonpayable"
    },
    {
      "type": "function",
      "name": "allowance",
      "inputs": [
        {
          "name": "owner",
          "type": "address",
          "internalType": "address"
        },
        {
          "name": "spender",
          "type": "address",
          "internalType": "address"
        }
      ],
      "outputs": [
        {
          "name": "",
          "type": "uint256",
          "internalType": "uint256"
        }
      ],
      "stateMutability": "view"
    },
    {
      "type": "function",
      "name": "approve",
      "inputs": [
        {
          "name": "spender",
          "type": "address",
          "internalType": "address"
        },
        {
          "name": "value",
          "type": "uint256",
          "internalType": "uint256"
        }
      ],
      "outputs": [
        {
          "name": "",
          "type": "bool",
          "internalType": "bool"
        }
      ],
      "stateMutability": "nonpayable"
    },
    {
      "type": "function",
      "name": "balanceOf",
      "inputs": [
        {
          "name": "account",
          "type": "address",
          "internalType": "address"
        }
      ],
      "outputs": [
        {
          "name": "",
          "type": "uint256",
          "internalType": "uint256"
        }
      ],
      "stateMutability": "view"
    },
    {
      "type": "function",
      "name": "decimals",
      "inputs": [],
      "outputs": [
        {
          "name": "",
          "type": "uint8",
          "internalType": "uint8"
        }
      ],
      "stateMutability": "view"
    },
    {
      "type": "function",
      "name": "fractionalize",
      "inputs": [
        {
          "name": "tokenId",
          "type": "uint256",
          "internalType": "uint256"
        },
        {
          "name": "shareCount",
          "type": "uint256",
          "internalType": "uint256"
        }
      ],
      "outputs": [],
      "stateMutability": "nonpayable"
    },
    {
      "type": "function",
      "name": "isLocked",
      "inputs": [],
      "outputs": [
        {
          "name": "",
          "type": "bool",
          "internalType": "bool"
        }
      ],
      "stateMutability": "view"
    },
    {
      "type": "function",
      "name": "lockedTokenId",
      "inputs": [],
      "outputs": [
        {
          "name": "",
          "type": "uint256",
          "internalType": "uint256"
        }
      ],
      "stateMutability": "view"
    },
    {
      "type": "function",
      "name": "name",
      "inputs": [],
      "outputs": [
        {
          "name": "",
          "type": "string",
          "internalType": "string"
        }
      ],
      "stateMutability": "view"
    },
    {
      "type": "function",
      "name": "owner",
      "inputs": [],
      "outputs": [
        {
          "name": "",
          "type": "address",
          "internalType": "address"
        }
      ],
      "stateMutability": "view"
    },
    {
      "type": "function",
      "name": "propertyNFT",
      "inputs": [],
      "outputs": [
        {
          "name": "",
          "type": "address",
          "internalType": "contract IERC721"
        }
      ],
      "stateMutability": "view"
    },
    {
      "type": "function",
      "name": "renounceOwnership",
      "inputs": [],
      "outputs": [],
      "stateMutability": "nonpayable"
    },
    {
      "type": "function",
      "name": "symbol",
      "inputs": [],
      "outputs": [
        {
          "name": "",
          "type": "string",
          "internalType": "string"
        }
      ],
      "stateMutability": "view"
    },
    {
      "type": "function",
      "name": "totalShares",
      "inputs": [],
      "outputs": [
        {
          "name": "",
          "type": "uint256",
          "internalType": "uint256"
        }
      ],
      "stateMutability": "view"
    },
    {
      "type": "function",
      "name": "totalSupply",
      "inputs": [],
      "outputs": [
        {
          "name": "",
          "type": "uint256",
          "internalType": "uint256"
        }
      ],
      "stateMutability": "view"
    },
    {
      "type": "function",
      "name": "transfer",
      "inputs": [
        {
          "name": "to",
          "type": "address",
          "internalType": "address"
        },
        {
          "name": "value",
          "type": "uint256",
          "internalType": "uint256"
        }
      ],
      "outputs": [
        {
          "name": "",
          "type": "bool",
          "internalType": "bool"
        }
      ],
      "stateMutability": "nonpayable"
    },
    {
      "type": "function",
      "name": "transferFrom",
      "inputs": [
        {
          "name": "from",
          "type": "address",
          "internalType": "address"
        },
        {
          "name": "to",
          "type": "address",
          "internalType": "address"
        },
        {
          "name": "value",
          "type": "uint256",
          "internalType": "uint256"
        }
      ],
      "outputs": [
        {
          "name": "",
          "type": "bool",
          "internalType": "bool"
        }
      ],
      "stateMutability": "nonpayable"
    },
    {
      "type": "function",
      "name": "transferOwnership",
      "inputs": [
        {
          "name": "newOwner",
          "type": "address",
          "internalType": "address"
        }
      ],
      "outputs": [],
      "stateMutability": "nonpayable"
    },
    {
      "type": "function",
      "name": "unfractionalize",
      "inputs": [
        {
          "name": "to",
          "type": "address",
          "internalType": "address"
        }
      ],
      "outputs": [],
      "stateMutability": "nonpayable"
    },
    {
      "type": "event",
      "name": "Approval",
      "inputs": [
        {
          "name": "owner",
          "type": "address",
          "indexed": true,
          "internalType": "address"
        },
        {
          "name": "spender",
          "type": "address",
          "indexed": true,
          "internalType": "address"
        },
        {
          "name": "value",
          "type": "uint256",
          "indexed": false,
          "internalType": "uint256"
        }
      ],
      "anonymous": false
    },
    {
      "type": "event",
      "name": "OwnershipTransferred",
      "inputs": [
        {
          "name": "previousOwner",
          "type": "address",
          "indexed": true,
          "internalType": "address"
        },
        {
          "name": "newOwner",
          "type": "address",
          "indexed": true,
          "internalType": "address"
        }
      ],
      "anonymous": false
    },
    {
      "type": "event",
      "name": "Transfer",
      "inputs": [
        {
          "name": "from",
          "type": "address",
          "indexed": true,
          "internalType": "address"
        },
        {
          "name": "to",
          "type": "address",
          "indexed": true,
          "internalType": "address"
        },
        {
          "name": "value",
          "type": "uint256",
          "indexed": false,
          "internalType": "uint256"
        }
      ],
      "anonymous": false
    },
    {
      "type": "error",
      "name": "ERC20InsufficientAllowance",
      "inputs": [
        {
          "name": "spender",
          "type": "address",
          "internalType": "address"
        },
        {
          "name": "allowance",
          "type": "uint256",
          "internalType": "uint256"
        },
        {
          "name": "needed",
          "type": "uint256",
          "internalType": "uint256"
        }
      ]
    },
    {
      "type": "error",
      "name": "ERC20InsufficientBalance",
      "inputs": [
        {
          "name": "sender",
          "type": "address",
          "internalType": "address"
        },
        {
          "name": "balance",
          "type": "uint256",
          "internalType": "uint256"
        },
        {
          "name": "needed",
          "type": "uint256",
          "internalType": "uint256"
        }
      ]
    },
    {
      "type": "error",
      "name": "ERC20InvalidApprover",
      "inputs": [
        {
          "name": "approver",
          "type": "address",
          "internalType": "address"
        }
      ]
    },
    {
      "type": "error",
      "name": "ERC20InvalidReceiver",
      "inputs": [
        {
          "name": "receiver",
          "type": "address",
          "internalType": "address"
        }
      ]
    },
    {
      "type": "error",
      "name": "ERC20InvalidSender",
      "inputs": [
        {
          "name": "sender",
          "type": "address",
          "internalType": "address"
        }
      ]
    },
    {
      "type": "error",
      "name": "ERC20InvalidSpender",
      "inputs": [
        {
          "name": "spender",
          "type": "address",
          "internalType": "address"
        }
      ]
    },
    {
      "type": "error",
      "name": "OwnableInvalidOwner",
      "inputs": [
        {
          "name": "owner",
          "type": "address",
          "internalType": "address"
        }
      ]
    },
    {
      "type": "error",
      "name": "OwnableUnauthorizedAccount",
      "inputs": [
        {
          "name": "account",
          "type": "address",
          "internalType": "address"
        }
      ]
    }
  ],
  "bytecode": {
    "object": "0x608060405234801561000f575f5ffd5b50604051611f63380380611f6383398181016040528101906100319190610388565b33828281600390816100439190610620565b5080600490816100539190610620565b5050505f73ffffffffffffffffffffffffffffffffffffffff168173ffffffffffffffffffffffffffffffffffffffff16036100c6575f6040517f1e4fbdf70000000000000000000000000000000000000000000000000000000081526004016100bd91906106fe565b60405180910390fd5b6100d58161011e60201b60201c565b508260065f6101000a81548173ffffffffffffffffffffffffffffffffffffffff021916908373ffffffffffffffffffffffffffffffffffffffff160217905550505050610717565b5f60055f9054906101000a900473ffffffffffffffffffffffffffffffffffffffff1690508160055f6101000a81548173ffffffffffffffffffffffffffffffffffffffff021916908373ffffffffffffffffffffffffffffffffffffffff1602179055508173ffffffffffffffffffffffffffffffffffffffff168173ffffffffffffffffffffffffffffffffffffffff167f8be0079c531659141344cd1fd0a4f28419497f9722a3daafe3b4186f6b6457e060405160405180910390a35050565b5f604051905090565b5f5ffd5b5f5ffd5b5f73ffffffffffffffffffffffffffffffffffffffff82169050919050565b5f61021b826101f2565b9050919050565b61022b81610211565b8114610235575f5ffd5b50565b5f8151905061024681610222565b92915050565b5f5ffd5b5f5ffd5b5f601f19601f8301169050919050565b7f4e487b71000000000000000000000000000000000000000000000000000000005f52604160045260245ffd5b61029a82610254565b810181811067ffffffffffffffff821117156102b9576102b8610264565b5b80604052505050565b5f6102cb6101e1565b90506102d78282610291565b919050565b5f67ffffffffffffffff8211156102f6576102f5610264565b5b6102ff82610254565b9050602081019050919050565b8281835e5f83830152505050565b5f61032c610327846102dc565b6102c2565b90508281526020810184848401111561034857610347610250565b5b61035384828561030c565b509392505050565b5f82601f83011261036f5761036e61024c565b5b815161037f84826020860161031a565b91505092915050565b5f5f5f6060848603121561039f5761039e6101ea565b5b5f6103ac86828701610238565b935050602084015167ffffffffffffffff8111156103cd576103cc6101ee565b5b6103d98682870161035b565b925050604084015167ffffffffffffffff8111156103fa576103f96101ee565b5b6104068682870161035b565b9150509250925092565b5f81519050919050565b7f4e487b71000000000000000000000000000000000000000000000000000000005f52602260045260245ffd5b5f600282049050600182168061045e57607f821691505b6020821081036104715761047061041a565b5b50919050565b5f819050815f5260205f209050919050565b5f6020601f8301049050919050565b5f82821b905092915050565b5f600883026104d37fffffffffffffffffffffffffffffffffffffffffffffffffffffffffffffffff82610498565b6104dd8683610498565b95508019841693508086168417925050509392505050565b5f819050919050565b5f819050919050565b5f61052161051c610517846104f5565b6104fe565b6104f5565b9050919050565b5f819050919050565b61053a83610507565b61054e61054682610528565b8484546104a4565b825550505050565b5f5f905090565b610565610556565b610570818484610531565b505050565b5b81811015610593576105885f8261055d565b600181019050610576565b5050565b601f8211156105d8576105a981610477565b6105b284610489565b810160208510156105c1578190505b6105d56105cd85610489565b830182610575565b50505b505050565b5f82821c905092915050565b5f6105f85f19846008026105dd565b1980831691505092915050565b5f61061083836105e9565b9150826002028217905092915050565b61062982610410565b67ffffffffffffffff81111561064257610641610264565b5b61064c8254610447565b610657828285610597565b5f60209050601f831160018114610688575f8415610676578287015190505b6106808582610605565b8655506106e7565b601f19841661069686610477565b5f5b828110156106bd57848901518255600182019150602085019450602081019050610698565b868310156106da57848901516106d6601f8916826105e9565b8355505b6001600288020188555050505b505050505050565b6106f881610211565b82525050565b5f6020820190506107115f8301846106ef565b92915050565b61183f806107245f395ff3fe608060405234801561000f575f5ffd5b5060043610610114575f3560e01c8063715018a6116100a0578063a4e2d6341161006f578063a4e2d634146102bc578063a9059cbb146102da578063dd62ed3e1461030a578063f2fde38b1461033a578063ff4537ab1461035657610114565b8063715018a61461025a5780638da5cb5b14610264578063907193fc1461028257806395d89b411461029e57610114565b806323b872dd116100e757806323b872dd146101a0578063313ce567146101d057806337f76838146101ee5780633a98ef391461020c57806370a082311461022a57610114565b806306fdde0314610118578063095ea7b3146101365780630c386fda1461016657806318160ddd14610182575b5f5ffd5b610120610374565b60405161012d91906111f0565b60405180910390f35b610150600480360381019061014b91906112a1565b610404565b60405161015d91906112f9565b60405180910390f35b610180600480360381019061017b9190611312565b610426565b005b61018a610593565b604051610197919061135f565b60405180910390f35b6101ba60048036038101906101b59190611378565b61059c565b6040516101c791906112f9565b60405180910390f35b6101d86105ca565b6040516101e591906113e3565b60405180910390f35b6101f66105d2565b6040516102039190611457565b60405180910390f35b6102146105f7565b604051610221919061135f565b60405180910390f35b610244600480360381019061023f9190611470565b6105fd565b604051610251919061135f565b60405180910390f35b610262610642565b005b61026c610655565b60405161027991906114aa565b60405180910390f35b61029c60048036038101906102979190611470565b61067d565b005b6102a66107e4565b6040516102b391906111f0565b60405180910390f35b6102c4610874565b6040516102d191906112f9565b60405180910390f35b6102f460048036038101906102ef91906112a1565b610886565b60405161030191906112f9565b60405180910390f35b610324600480360381019061031f91906114c3565b6108a8565b604051610331919061135f565b60405180910390f35b610354600480360381019061034f9190611470565b61092a565b005b61035e6109ae565b60405161036b919061135f565b60405180910390f35b6060600380546103839061152e565b80601f01602080910402602001604051908101604052809291908181526020018280546103af9061152e565b80156103fa5780601f106103d1576101008083540402835291602001916103fa565b820191905f5260205f20905b8154815290600101906020018083116103dd57829003601f168201915b5050505050905090565b5f5f61040e6109b4565b905061041b8185856109bb565b600191505092915050565b61042e6109cd565b60095f9054906101000a900460ff161561047d576040517f08c379a0000000000000000000000000000000000000000000000000000000008152600401610474906115a8565b60405180910390fd5b5f81116104bf576040517f08c379a00000000000000000000000000000000000000000000000000000000081526004016104b690611610565b60405180910390fd5b60065f9054906101000a900473ffffffffffffffffffffffffffffffffffffffff1673ffffffffffffffffffffffffffffffffffffffff166323b872dd3330856040518463ffffffff1660e01b815260040161051d9392919061162e565b5f604051808303815f87803b158015610534575f5ffd5b505af1158015610546573d5f5f3e3d5ffd5b505050508160078190555080600881905550600160095f6101000a81548160ff02191690831515021790555061058f33670de0b6b3a76400008361058a9190611690565b610a54565b5050565b5f600254905090565b5f5f6105a66109b4565b90506105b3858285610ad3565b6105be858585610b66565b60019150509392505050565b5f6012905090565b60065f9054906101000a900473ffffffffffffffffffffffffffffffffffffffff1681565b60085481565b5f5f5f8373ffffffffffffffffffffffffffffffffffffffff1673ffffffffffffffffffffffffffffffffffffffff1681526020019081526020015f20549050919050565b61064a6109cd565b6106535f610c56565b565b5f60055f9054906101000a900473ffffffffffffffffffffffffffffffffffffffff16905090565b60095f9054906101000a900460ff166106cb576040517f08c379a00000000000000000000000000000000000000000000000000000000081526004016106c29061171b565b60405180910390fd5b6106d3610593565b6106dc336105fd565b1461071c576040517f08c379a000000000000000000000000000000000000000000000000000000000815260040161071390611783565b60405180910390fd5b61072d33610728610593565b610d19565b60065f9054906101000a900473ffffffffffffffffffffffffffffffffffffffff1673ffffffffffffffffffffffffffffffffffffffff166323b872dd30836007546040518463ffffffff1660e01b815260040161078d9392919061162e565b5f604051808303815f87803b1580156107a4575f5ffd5b505af11580156107b6573d5f5f3e3d5ffd5b505050505f60095f6101000a81548160ff0219169083151502179055505f6007819055505f60088190555050565b6060600480546107f39061152e565b80601f016020809104026020016040519081016040528092919081815260200182805461081f9061152e565b801561086a5780601f106108415761010080835404028352916020019161086a565b820191905f5260205f20905b81548152906001019060200180831161084d57829003601f168201915b5050505050905090565b60095f9054906101000a900460ff1681565b5f5f6108906109b4565b905061089d818585610b66565b600191505092915050565b5f60015f8473ffffffffffffffffffffffffffffffffffffffff1673ffffffffffffffffffffffffffffffffffffffff1681526020019081526020015f205f8373ffffffffffffffffffffffffffffffffffffffff1673ffffffffffffffffffffffffffffffffffffffff1681526020019081526020015f2054905092915050565b6109326109cd565b5f73ffffffffffffffffffffffffffffffffffffffff168173ffffffffffffffffffffffffffffffffffffffff16036109a2575f6040517f1e4fbdf700000000000000000000000000000000000000000000000000000000815260040161099991906114aa565b60405180910390fd5b6109ab81610c56565b50565b60075481565b5f33905090565b6109c88383836001610d98565b505050565b6109d56109b4565b73ffffffffffffffffffffffffffffffffffffffff166109f3610655565b73ffffffffffffffffffffffffffffffffffffffff1614610a5257610a166109b4565b6040517f118cdaa7000000000000000000000000000000000000000000000000000000008152600401610a4991906114aa565b60405180910390fd5b565b5f73ffffffffffffffffffffffffffffffffffffffff168273ffffffffffffffffffffffffffffffffffffffff1603610ac4575f6040517fec442f05000000000000000000000000000000000000000000000000000000008152600401610abb91906114aa565b60405180910390fd5b610acf5f8383610f67565b5050565b5f610ade84846108a8565b90507fffffffffffffffffffffffffffffffffffffffffffffffffffffffffffffffff811015610b605781811015610b51578281836040517ffb8f41b2000000000000000000000000000000000000000000000000000000008152600401610b48939291906117a1565b60405180910390fd5b610b5f84848484035f610d98565b5b50505050565b5f73ffffffffffffffffffffffffffffffffffffffff168373ffffffffffffffffffffffffffffffffffffffff1603610bd6575f6040517f96c6fd1e000000000000000000000000000000000000000000000000000000008152600401610bcd91906114aa565b60405180910390fd5b5f73ffffffffffffffffffffffffffffffffffffffff168273ffffffffffffffffffffffffffffffffffffffff1603610c46575f6040517fec442f05000000000000000000000000000000000000000000000000000000008152600401610c3d91906114aa565b60405180910390fd5b610c51838383610f67565b505050565b5f60055f9054906101000a900473ffffffffffffffffffffffffffffffffffffffff1690508160055f6101000a81548173ffffffffffffffffffffffffffffffffffffffff021916908373ffffffffffffffffffffffffffffffffffffffff1602179055508173ffffffffffffffffffffffffffffffffffffffff168173ffffffffffffffffffffffffffffffffffffffff167f8be0079c531659141344cd1fd0a4f28419497f9722a3daafe3b4186f6b6457e060405160405180910390a35050565b5f73ffffffffffffffffffffffffffffffffffffffff168273ffffffffffffffffffffffffffffffffffffffff1603610d89575f6040517f96c6fd1e000000000000000000000000000000000000000000000000000000008152600401610d8091906114aa565b60405180910390fd5b610d94825f83610f67565b5050565b5f73ffffffffffffffffffffffffffffffffffffffff168473ffffffffffffffffffffffffffffffffffffffff1603610e08575f6040517fe602df05000000000000000000000000000000000000000000000000000000008152600401610dff91906114aa565b60405180910390fd5b5f73ffffffffffffffffffffffffffffffffffffffff168373ffffffffffffffffffffffffffffffffffffffff1603610e78575f6040517f94280d62000000000000000000000000000000000000000000000000000000008152600401610e6f91906114aa565b60405180910390fd5b8160015f8673ffffffffffffffffffffffffffffffffffffffff1673ffffffffffffffffffffffffffffffffffffffff1681526020019081526020015f205f8573ffffffffffffffffffffffffffffffffffffffff1673ffffffffffffffffffffffffffffffffffffffff1681526020019081526020015f20819055508015610f61578273ffffffffffffffffffffffffffffffffffffffff168473ffffffffffffffffffffffffffffffffffffffff167f8c5be1e5ebec7d5bd14f71427d1e84f3dd0314c0f7b2291e5b200ac8c7c3b92584604051610f58919061135f565b60405180910390a35b50505050565b5f73ffffffffffffffffffffffffffffffffffffffff168373ffffffffffffffffffffffffffffffffffffffff1603610fb7578060025f828254610fab91906117d6565b92505081905550611085565b5f5f5f8573ffffffffffffffffffffffffffffffffffffffff1673ffffffffffffffffffffffffffffffffffffffff1681526020019081526020015f2054905081811015611040578381836040517fe450d38c000000000000000000000000000000000000000000000000000000008152600401611037939291906117a1565b60405180910390fd5b8181035f5f8673ffffffffffffffffffffffffffffffffffffffff1673ffffffffffffffffffffffffffffffffffffffff1681526020019081526020015f2081905550505b5f73ffffffffffffffffffffffffffffffffffffffff168273ffffffffffffffffffffffffffffffffffffffff16036110cc578060025f8282540392505081905550611116565b805f5f8473ffffffffffffffffffffffffffffffffffffffff1673ffffffffffffffffffffffffffffffffffffffff1681526020019081526020015f205f82825401925050819055505b8173ffffffffffffffffffffffffffffffffffffffff168373ffffffffffffffffffffffffffffffffffffffff167fddf252ad1be2c89b69c2b068fc378daa952ba7f163c4a11628f55a4df523b3ef83604051611173919061135f565b60405180910390a3505050565b5f81519050919050565b5f82825260208201905092915050565b8281835e5f83830152505050565b5f601f19601f8301169050919050565b5f6111c282611180565b6111cc818561118a565b93506111dc81856020860161119a565b6111e5816111a8565b840191505092915050565b5f6020820190508181035f83015261120881846111b8565b905092915050565b5f5ffd5b5f73ffffffffffffffffffffffffffffffffffffffff82169050919050565b5f61123d82611214565b9050919050565b61124d81611233565b8114611257575f5ffd5b50565b5f8135905061126881611244565b92915050565b5f819050919050565b6112808161126e565b811461128a575f5ffd5b50565b5f8135905061129b81611277565b92915050565b5f5f604083850312156112b7576112b6611210565b5b5f6112c48582860161125a565b92505060206112d58582860161128d565b9150509250929050565b5f8115159050919050565b6112f3816112df565b82525050565b5f60208201905061130c5f8301846112ea565b92915050565b5f5f6040838503121561132857611327611210565b5b5f6113358582860161128d565b92505060206113468582860161128d565b9150509250929050565b6113598161126e565b82525050565b5f6020820190506113725f830184611350565b92915050565b5f5f5f6060848603121561138f5761138e611210565b5b5f61139c8682870161125a565b93505060206113ad8682870161125a565b92505060406113be8682870161128d565b9150509250925092565b5f60ff82169050919050565b6113dd816113c8565b82525050565b5f6020820190506113f65f8301846113d4565b92915050565b5f819050919050565b5f61141f61141a61141584611214565b6113fc565b611214565b9050919050565b5f61143082611405565b9050919050565b5f61144182611426565b9050919050565b61145181611437565b82525050565b5f60208201905061146a5f830184611448565b92915050565b5f6020828403121561148557611484611210565b5b5f6114928482850161125a565b91505092915050565b6114a481611233565b82525050565b5f6020820190506114bd5f83018461149b565b92915050565b5f5f604083850312156114d9576114d8611210565b5b5f6114e68582860161125a565b92505060206114f78582860161125a565b9150509250929050565b7f4e487b71000000000000000000000000000000000000000000000000000000005f52602260045260245ffd5b5f600282049050600182168061154557607f821691505b60208210810361155857611557611501565b5b50919050565b7f416c7265616479206672616374696f6e616c697a6564000000000000000000005f82015250565b5f61159260168361118a565b915061159d8261155e565b602082019050919050565b5f6020820190508181035f8301526115bf81611586565b9050919050565b7f536861726520636f756e74206d757374206265203e20300000000000000000005f82015250565b5f6115fa60178361118a565b9150611605826115c6565b602082019050919050565b5f6020820190508181035f830152611627816115ee565b9050919050565b5f6060820190506116415f83018661149b565b61164e602083018561149b565b61165b6040830184611350565b949350505050565b7f4e487b71000000000000000000000000000000000000000000000000000000005f52601160045260245ffd5b5f61169a8261126e565b91506116a58361126e565b92508282026116b38161126e565b915082820484148315176116ca576116c9611663565b5b5092915050565b7f4e6f204e4654206c6f636b6564000000000000000000000000000000000000005f82015250565b5f611705600d8361118a565b9150611710826116d1565b602082019050919050565b5f6020820190508181035f830152611732816116f9565b9050919050565b7f4d757374206f776e20616c6c20736861726573000000000000000000000000005f82015250565b5f61176d60138361118a565b915061177882611739565b602082019050919050565b5f6020820190508181035f83015261179a81611761565b9050919050565b5f6060820190506117b45f83018661149b565b6117c16020830185611350565b6117ce6040830184611350565b949350505050565b5f6117e08261126e565b91506117eb8361126e565b925082820190508082111561180357611802611663565b5b9291505056fea264697066735822122061b04e4dc9b70f419b398a045e2c8635cef8272d4d5c3c131e1a67ab2d9af07164736f6c634300081e0033",
    "linkReferences": {}
  },
  "methodIdentifiers": {
    "allowance(address,address)": "dd62ed3e",
    "approve(address,uint256)": "095ea7b3",
    "balanceOf(address)": "70a08231",
    "decimals()": "313ce567",
    "fractionalize(uint256,uint256)": "0c386fda",
    "isLocked()": "a4e2d634",
    "lockedTokenId()": "ff4537ab",
    "name()": "06fdde03",
    "owner()": "8da5cb5b",
    "propertyNFT()": "37f76838",
    "renounceOwnership()": "715018a6",
    "symbol()": "95d89b41",
    "totalShares()": "3a98ef39",
    "totalSupply()": "18160ddd",
    "transfer(address,uint256)": "a9059cbb",
    "transferFrom(address,address,uint256)": "23b872dd",
    "transferOwnership(address)": "f2fde38b",
    "unfractionalize(address)": "907193fc"
  },
  "id": 40
}