{
  "abi": [
    {
      "type": "constructor",
      "inputs": [
        {
          "name": "_nft",
          "type": "address",
          "internalType": "address"
        },
        {
          "name": "_name",
          "type": "string",
          "internalType": "string"
        },
        {
          "name": "_symbol",
          "type": "string",
          "internalType": "string"
        }
      ],
      "stateMutability": "nonpayable"
    },
    {
      "type": "function",
      "name": "allowance",
      "inputs": [
        {
          "name": "owner",
          "type": "address",
          "internalType": "address"
        },
        {
          "name": "spender",
          "type": "address",
          "internalType": "address"
        }
      ],
      "outputs": [
        {
          "name": "",
          "type": "uint256",
          "internalType": "uint256"
        }
      ],
      "stateMutability": "view"
    },
    {
      "type": "function",
      "name": "approve",
      "inputs": [
        {
          "name": "spender",
          "type": "address",
          "internalType": "address"
        },
        {
          "name": "value",
          "type": "uint256",
          "internalType": "uint256"
        }
      ],
      "outputs": [
        {
          "name": "",
          "type": "bool",
          "internalType": "bool"
        }
      ],
      "stateMutability": "nonpayable"
    },
    {
      "type": "function",
      "name": "balanceOf",
      "inputs": [
        {
          "name": "account",
          "type": "address",
          "internalType": "address"
        }
      ],
      "outputs": [
        {
          "name": "",
          "type": "uint256",
          "internalType": "uint256"
        }
      ],
      "stateMutability": "view"
    },
    {
      "type": "function",
      "name": "decimals",
      "inputs": [],
      "outputs": [
        {
          "name": "",
          "type": "uint8",
          "internalType": "uint8"
        }
      ],
      "stateMutability": "view"
    },
    {
      "type": "function",
      "name": "fractionalize",
      "inputs": [
        {
          "name": "tokenId",
          "type": "uint256",
          "internalType": "uint256"
        },
        {
          "name": "shareCount",
          "type": "uint256",
          "internalType": "uint256"
        }
      ],
      "outputs": [],
      "stateMutability": "nonpayable"
    },
    {
      "type": "function",
      "name": "isLocked",
      "inputs": [],
      "outputs": [
        {
          "name": "",
          "type": "bool",
          "internalType": "bool"
        }
      ],
      "stateMutability": "view"
    },
    {
      "type": "function",
      "name": "lockedTokenId",
      "inputs": [],
      "outputs": [
        {
          "name": "",
          "type": "uint256",
          "internalType": "uint256"
        }
      ],
      "stateMutability": "view"
    },
    {
      "type": "function",
      "name": "name",
      "inputs": [],
      "outputs": [
        {
          "name": "",
          "type": "string",
          "internalType": "string"
        }
      ],
      "stateMutability": "view"
    },
    {
      "type": "function",
      "name": "owner",
      "inputs": [],
      "outputs": [
        {
          "name": "",
          "type": "address",
          "internalType": "address"
        }
      ],
      "stateMutability": "view"
    },
    {
      "type": "function",
      "name": "propertyNFT",
      "inputs": [],
      "outputs": [
        {
          "name": "",
          "type": "address",
          "internalType": "contract IERC721"
        }
      ],
      "stateMutability": "view"
    },
    {
      "type": "function",
      "name": "renounceOwnership",
      "inputs": [],
      "outputs": [],
      "stateMutability": "nonpayable"
    },
    {
      "type": "function",
      "name": "symbol",
      "inputs": [],
      "outputs": [
        {
          "name": "",
          "type": "string",
          "internalType": "string"
        }
      ],
      "stateMutability": "view"
    },
    {
      "type": "function",
      "name": "totalShares",
      "inputs": [],
      "outputs": [
        {
          "name": "",
          "type": "uint256",
          "internalType": "uint256"
        }
      ],
      "stateMutability": "view"
    },
    {
      "type": "function",
      "name": "totalSupply",
      "inputs": [],
      "outputs": [
        {
          "name": "",
          "type": "uint256",
          "internalType": "uint256"
        }
      ],
      "stateMutability": "view"
    },
    {
      "type": "function",
      "name": "transfer",
      "inputs": [
        {
          "name": "to",
          "type": "address",
          "internalType": "address"
        },
        {
          "name": "value",
          "type": "uint256",
          "internalType": "uint256"
        }
      ],
      "outputs": [
        {
          "name": "",
          "type": "bool",
          "internalType": "bool"
        }
      ],
      "stateMutability": "nonpayable"
    },
    {
      "type": "function",
      "name": "transferFrom",
      "inputs": [
        {
          "name": "from",
          "type": "address",
          "internalType": "address"
        },
        {
          "name": "to",
          "type": "address",
          "internalType": "address"
        },
        {
          "name": "value",
          "type": "uint256",
          "internalType": "uint256"
        }
      ],
      "outputs": [
        {
          "name": "",
          "type": "bool",
          "internalType": "bool"
        }
      ],
      "stateMutability": "nonpayable"
    },
    {
      "type": "function",
      "name": "transferOwnership",
      "inputs": [
        {
          "name": "newOwner",
          "type": "address",
          "internalType": "address"
        }
      ],
      "outputs": [],
      "stateMutability": "nonpayable"
    },
    {
      "type": "function",
      "name": "unfractionalize",
      "inputs": [
        {
          "name": "to",
          "type": "address",
          "internalType": "address"
        }
      ],
      "outputs": [],
      "stateMutability": "nonpayable"
    },
    {
      "type": "event",
      "name": "Approval",
      "inputs": [
        {
          "name": "owner",
          "type": "address",
          "indexed": true,
          "internalType": "address"
        },
        {
          "name": "spender",
          "type": "address",
          "indexed": true,
          "internalType": "address"
        },
        {
          "name": "value",
          "type": "uint256",
          "indexed": false,
          "internalType": "uint256"
        }
      ],
      "anonymous": false
    },
    {
      "type": "event",
      "name": "OwnershipTransferred",
      "inputs": [
        {
          "name": "previousOwner",
          "type": "address",
          "indexed": true,
          "internalType": "address"
        },
        {
          "name": "newOwner",
          "type": "address",
          "indexed": true,
          "internalType": "address"
        }
      ],
      "anonymous": false
    },
    {
      "type": "event",
      "name": "Transfer",
      "inputs": [
        {
          "name": "from",
          "type": "address",
          "indexed": true,
          "internalType": "address"
        },
        {
          "name": "to",
          "type": "address",
          "indexed": true,
          "internalType": "address"
        },
        {
          "name": "value",
          "type": "uint256",
          "indexed": false,
          "internalType": "uint256"
        }
      ],
      "anonymous": false
    },
    {
      "type": "error",
      "name": "ERC20InsufficientAllowance",
      "inputs": [
        {
          "name": "spender",
          "type": "address",
          "internalType": "address"
        },
        {
          "name": "allowance",
          "type": "uint256",
          "internalType": "uint256"
        },
        {
          "name": "needed",
          "type": "uint256",
          "internalType": "uint256"
        }
      ]
    },
    {
      "type": "error",
      "name": "ERC20InsufficientBalance",
      "inputs": [
        {
          "name": "sender",
          "type": "address",
          "internalType": "address"
        },
        {
          "name": "balance",
          "type": "uint256",
          "internalType": "uint256"
        },
        {
          "name": "needed",
          "type": "uint256",
          "internalType": "uint256"
        }
      ]
    },
    {
      "type": "error",
      "name": "ERC20InvalidApprover",
      "inputs": [
        {
          "name": "approver",
          "type": "address",
          "internalType": "address"
        }
      ]
    },
    {
      "type": "error",
      "name": "ERC20InvalidReceiver",
      "inputs": [
        {
          "name": "receiver",
          "type": "address",
          "internalType": "address"
        }
      ]
    },
    {
      "type": "error",
      "name": "ERC20InvalidSender",
      "inputs": [
        {
          "name": "sender",
          "type": "address",
          "internalType": "address"
        }
      ]
    },
    {
      "type": "error",
      "name": "ERC20InvalidSpender",
      "inputs": [
        {
          "name": "spender",
          "type": "address",
          "internalType": "address"
        }
      ]
    },
    {
      "type": "error",
      "name": "OwnableInvalidOwner",
      "inputs": [
        {
          "name": "owner",
          "type": "address",
          "internalType": "address"
        }
      ]
    },
    {
      "type": "error",
      "name": "OwnableUnauthorizedAccount",
      "inputs": [
        {
          "name": "account",
          "type": "address",
          "internalType": "address"
        }
      ]
    }
  ],
  "bytecode": {
    "object": "0x608060405234801561000f575f5ffd5b506040516120e73803806120e783398181016040528101906100319190610388565b33828281600390816100439190610620565b5080600490816100539190610620565b5050505f73ffffffffffffffffffffffffffffffffffffffff168173ffffffffffffffffffffffffffffffffffffffff16036100c6575f6040517f1e4fbdf70000000000000000000000000000000000000000000000000000000081526004016100bd91906106fe565b60405180910390fd5b6100d58161011e60201b60201c565b508260065f6101000a81548173ffffffffffffffffffffffffffffffffffffffff021916908373ffffffffffffffffffffffffffffffffffffffff160217905550505050610717565b5f60055f9054906101000a900473ffffffffffffffffffffffffffffffffffffffff1690508160055f6101000a81548173ffffffffffffffffffffffffffffffffffffffff021916908373ffffffffffffffffffffffffffffffffffffffff1602179055508173ffffffffffffffffffffffffffffffffffffffff168173ffffffffffffffffffffffffffffffffffffffff167f8be0079c531659141344cd1fd0a4f28419497f9722a3daafe3b4186f6b6457e060405160405180910390a35050565b5f604051905090565b5f5ffd5b5f5ffd5b5f73ffffffffffffffffffffffffffffffffffffffff82169050919050565b5f61021b826101f2565b9050919050565b61022b81610211565b8114610235575f5ffd5b50565b5f8151905061024681610222565b92915050565b5f5ffd5b5f5ffd5b5f601f19601f8301169050919050565b7f4e487b71000000000000000000000000000000000000000000000000000000005f52604160045260245ffd5b61029a82610254565b810181811067ffffffffffffffff821117156102b9576102b8610264565b5b80604052505050565b5f6102cb6101e1565b90506102d78282610291565b919050565b5f67ffffffffffffffff8211156102f6576102f5610264565b5b6102ff82610254565b9050602081019050919050565b8281835e5f83830152505050565b5f61032c610327846102dc565b6102c2565b90508281526020810184848401111561034857610347610250565b5b61035384828561030c565b509392505050565b5f82601f83011261036f5761036e61024c565b5b815161037f84826020860161031a565b91505092915050565b5f5f5f6060848603121561039f5761039e6101ea565b5b5f6103ac86828701610238565b935050602084015167ffffffffffffffff8111156103cd576103cc6101ee565b5b6103d98682870161035b565b925050604084015167ffffffffffffffff8111156103fa576103f96101ee565b5b6104068682870161035b565b9150509250925092565b5f81519050919050565b7f4e487b71000000000000000000000000000000000000000000000000000000005f52602260045260245ffd5b5f600282049050600182168061045e57607f821691505b6020821081036104715761047061041a565b5b50919050565b5f819050815f5260205f209050919050565b5f6020601f8301049050919050565b5f82821b905092915050565b5f600883026104d37fffffffffffffffffffffffffffffffffffffffffffffffffffffffffffffffff82610498565b6104dd8683610498565b95508019841693508086168417925050509392505050565b5f819050919050565b5f819050919050565b5f61052161051c610517846104f5565b6104fe565b6104f5565b9050919050565b5f819050919050565b61053a83610507565b61054e61054682610528565b8484546104a4565b825550505050565b5f5f905090565b610565610556565b610570818484610531565b505050565b5b81811015610593576105885f8261055d565b600181019050610576565b5050565b601f8211156105d8576105a981610477565b6105b284610489565b810160208510156105c1578190505b6105d56105cd85610489565b830182610575565b50505b505050565b5f82821c905092915050565b5f6105f85f19846008026105dd565b1980831691505092915050565b5f61061083836105e9565b9150826002028217905092915050565b61062982610410565b67ffffffffffffffff81111561064257610641610264565b5b61064c8254610447565b610657828285610597565b5f60209050601f831160018114610688575f8415610676578287015190505b6106808582610605565b8655506106e7565b601f19841661069686610477565b5f5b828110156106bd57848901518255600182019150602085019450602081019050610698565b868310156106da57848901516106d6601f8916826105e9565b8355505b6001600288020188555050505b505050505050565b6106f881610211565b82525050565b5f6020820190506107115f8301846106ef565b92915050565b6119c3806107245f395ff3fe608060405234801561000f575f5ffd5b5060043610610114575f3560e01c8063715018a6116100a0578063a4e2d6341161006f578063a4e2d634146102bc578063a9059cbb146102da578063dd62ed3e1461030a578063f2fde38b1461033a578063ff4537ab1461035657610114565b8063715018a61461025a5780638da5cb5b14610264578063907193fc1461028257806395d89b411461029e57610114565b806323b872dd116100e757806323b872dd146101a0578063313ce567146101d057806337f76838146101ee5780633a98ef391461020c57806370a082311461022a57610114565b806306fdde0314610118578063095ea7b3146101365780630c386fda1461016657806318160ddd14610182575b5f5ffd5b610120610374565b60405161012d91906111fb565b60405180910390f35b610150600480360381019061014b91906112ac565b610404565b60405161015d9190611304565b60405180910390f35b610180600480360381019061017b919061131d565b610426565b005b61018a61059e565b604051610197919061136a565b60405180910390f35b6101ba60048036038101906101b59190611383565b6105a7565b6040516101c79190611304565b60405180910390f35b6101d86105d5565b6040516101e591906113ee565b60405180910390f35b6101f66105dd565b6040516102039190611462565b60405180910390f35b610214610602565b604051610221919061136a565b60405180910390f35b610244600480360381019061023f919061147b565b610608565b604051610251919061136a565b60405180910390f35b61026261064d565b005b61026c610660565b60405161027991906114b5565b60405180910390f35b61029c6004803603810190610297919061147b565b610688565b005b6102a66107ef565b6040516102b391906111fb565b60405180910390f35b6102c461087f565b6040516102d19190611304565b60405180910390f35b6102f460048036038101906102ef91906112ac565b610891565b6040516103019190611304565b60405180910390f35b610324600480360381019061031f91906114ce565b6108b3565b604051610331919061136a565b60405180910390f35b610354600480360381019061034f919061147b565b610935565b005b61035e6109b9565b60405161036b919061136a565b60405180910390f35b60606003805461038390611539565b80601f01602080910402602001604051908101604052809291908181526020018280546103af90611539565b80156103fa5780601f106103d1576101008083540402835291602001916103fa565b820191905f5260205f20905b8154815290600101906020018083116103dd57829003601f168201915b5050505050905090565b5f5f61040e6109bf565b905061041b8185856109c6565b600191505092915050565b61042e6109d8565b60095f9054906101000a900460ff161561047d576040517f08c379a0000000000000000000000000000000000000000000000000000000008152600401610474906115b3565b60405180910390fd5b5f81116104bf576040517f08c379a00000000000000000000000000000000000000000000000000000000081526004016104b69061161b565b60405180910390fd5b60065f9054906101000a900473ffffffffffffffffffffffffffffffffffffffff1673ffffffffffffffffffffffffffffffffffffffff166323b872dd3330856040518463ffffffff1660e01b815260040161051d93929190611639565b5f604051808303815f87803b158015610534575f5ffd5b505af1158015610546573d5f5f3e3d5ffd5b505050508160078190555080600881905550600160095f6101000a81548160ff02191690831515021790555061059a3361057e6105d5565b600a61058a91906117ca565b836105959190611814565b610a5f565b5050565b5f600254905090565b5f5f6105b16109bf565b90506105be858285610ade565b6105c9858585610b71565b60019150509392505050565b5f6012905090565b60065f9054906101000a900473ffffffffffffffffffffffffffffffffffffffff1681565b60085481565b5f5f5f8373ffffffffffffffffffffffffffffffffffffffff1673ffffffffffffffffffffffffffffffffffffffff1681526020019081526020015f20549050919050565b6106556109d8565b61065e5f610c61565b565b5f60055f9054906101000a900473ffffffffffffffffffffffffffffffffffffffff16905090565b60095f9054906101000a900460ff166106d6576040517f08c379a00000000000000000000000000000000000000000000000000000000081526004016106cd9061189f565b60405180910390fd5b6106de61059e565b6106e733610608565b14610727576040517f08c379a000000000000000000000000000000000000000000000000000000000815260040161071e90611907565b60405180910390fd5b6107383361073361059e565b610d24565b60065f9054906101000a900473ffffffffffffffffffffffffffffffffffffffff1673ffffffffffffffffffffffffffffffffffffffff166323b872dd30836007546040518463ffffffff1660e01b815260040161079893929190611639565b5f604051808303815f87803b1580156107af575f5ffd5b505af11580156107c1573d5f5f3e3d5ffd5b505050505f60095f6101000a81548160ff0219169083151502179055505f6007819055505f60088190555050565b6060600480546107fe90611539565b80601f016020809104026020016040519081016040528092919081815260200182805461082a90611539565b80156108755780601f1061084c57610100808354040283529160200191610875565b820191905f5260205f20905b81548152906001019060200180831161085857829003601f168201915b5050505050905090565b60095f9054906101000a900460ff1681565b5f5f61089b6109bf565b90506108a8818585610b71565b600191505092915050565b5f60015f8473ffffffffffffffffffffffffffffffffffffffff1673ffffffffffffffffffffffffffffffffffffffff1681526020019081526020015f205f8373ffffffffffffffffffffffffffffffffffffffff1673ffffffffffffffffffffffffffffffffffffffff1681526020019081526020015f2054905092915050565b61093d6109d8565b5f73ffffffffffffffffffffffffffffffffffffffff168173ffffffffffffffffffffffffffffffffffffffff16036109ad575f6040517f1e4fbdf70000000000000000000000000000000000000000000000000000000081526004016109a491906114b5565b60405180910390fd5b6109b681610c61565b50565b60075481565b5f33905090565b6109d38383836001610da3565b505050565b6109e06109bf565b73ffffffffffffffffffffffffffffffffffffffff166109fe610660565b73ffffffffffffffffffffffffffffffffffffffff1614610a5d57610a216109bf565b6040517f118cdaa7000000000000000000000000000000000000000000000000000000008152600401610a5491906114b5565b60405180910390fd5b565b5f73ffffffffffffffffffffffffffffffffffffffff168273ffffffffffffffffffffffffffffffffffffffff1603610acf575f6040517fec442f05000000000000000000000000000000000000000000000000000000008152600401610ac691906114b5565b60405180910390fd5b610ada5f8383610f72565b5050565b5f610ae984846108b3565b90507fffffffffffffffffffffffffffffffffffffffffffffffffffffffffffffffff811015610b6b5781811015610b5c578281836040517ffb8f41b2000000000000000000000000000000000000000000000000000000008152600401610b5393929190611925565b60405180910390fd5b610b6a84848484035f610da3565b5b50505050565b5f73ffffffffffffffffffffffffffffffffffffffff168373ffffffffffffffffffffffffffffffffffffffff1603610be1575f6040517f96c6fd1e000000000000000000000000000000000000000000000000000000008152600401610bd891906114b5565b60405180910390fd5b5f73ffffffffffffffffffffffffffffffffffffffff168273ffffffffffffffffffffffffffffffffffffffff1603610c51575f6040517fec442f05000000000000000000000000000000000000000000000000000000008152600401610c4891906114b5565b60405180910390fd5b610c5c838383610f72565b505050565b5f60055f9054906101000a900473ffffffffffffffffffffffffffffffffffffffff1690508160055f6101000a81548173ffffffffffffffffffffffffffffffffffffffff021916908373ffffffffffffffffffffffffffffffffffffffff1602179055508173ffffffffffffffffffffffffffffffffffffffff168173ffffffffffffffffffffffffffffffffffffffff167f8be0079c531659141344cd1fd0a4f28419497f9722a3daafe3b4186f6b6457e060405160405180910390a35050565b5f73ffffffffffffffffffffffffffffffffffffffff168273ffffffffffffffffffffffffffffffffffffffff1603610d94575f6040517f96c6fd1e000000000000000000000000000000000000000000000000000000008152600401610d8b91906114b5565b60405180910390fd5b610d9f825f83610f72565b5050565b5f73ffffffffffffffffffffffffffffffffffffffff168473ffffffffffffffffffffffffffffffffffffffff1603610e13575f6040517fe602df05000000000000000000000000000000000000000000000000000000008152600401610e0a91906114b5565b60405180910390fd5b5f73ffffffffffffffffffffffffffffffffffffffff168373ffffffffffffffffffffffffffffffffffffffff1603610e83575f6040517f94280d62000000000000000000000000000000000000000000000000000000008152600401610e7a91906114b5565b60405180910390fd5b8160015f8673ffffffffffffffffffffffffffffffffffffffff1673ffffffffffffffffffffffffffffffffffffffff1681526020019081526020015f205f8573ffffffffffffffffffffffffffffffffffffffff1673ffffffffffffffffffffffffffffffffffffffff1681526020019081526020015f20819055508015610f6c578273ffffffffffffffffffffffffffffffffffffffff168473ffffffffffffffffffffffffffffffffffffffff167f8c5be1e5ebec7d5bd14f71427d1e84f3dd0314c0f7b2291e5b200ac8c7c3b92584604051610f63919061136a565b60405180910390a35b50505050565b5f73ffffffffffffffffffffffffffffffffffffffff168373ffffffffffffffffffffffffffffffffffffffff1603610fc2578060025f828254610fb6919061195a565b92505081905550611090565b5f5f5f8573ffffffffffffffffffffffffffffffffffffffff1673ffffffffffffffffffffffffffffffffffffffff1681526020019081526020015f205490508181101561104b578381836040517fe450d38c00000000000000000000000000000000000000000000000000000000815260040161104293929190611925565b60405180910390fd5b8181035f5f8673ffffffffffffffffffffffffffffffffffffffff1673ffffffffffffffffffffffffffffffffffffffff1681526020019081526020015f2081905550505b5f73ffffffffffffffffffffffffffffffffffffffff168273ffffffffffffffffffffffffffffffffffffffff16036110d7578060025f8282540392505081905550611121565b805f5f8473ffffffffffffffffffffffffffffffffffffffff1673ffffffffffffffffffffffffffffffffffffffff1681526020019081526020015f205f82825401925050819055505b8173ffffffffffffffffffffffffffffffffffffffff168373ffffffffffffffffffffffffffffffffffffffff167fddf252ad1be2c89b69c2b068fc378daa952ba7f163c4a11628f55a4df523b3ef8360405161117e919061136a565b60405180910390a3505050565b5f81519050919050565b5f82825260208201905092915050565b8281835e5f83830152505050565b5f601f19601f8301169050919050565b5f6111cd8261118b565b6111d78185611195565b93506111e78185602086016111a5565b6111f0816111b3565b840191505092915050565b5f6020820190508181035f83015261121381846111c3565b905092915050565b5f5ffd5b5f73ffffffffffffffffffffffffffffffffffffffff82169050919050565b5f6112488261121f565b9050919050565b6112588161123e565b8114611262575f5ffd5b50565b5f813590506112738161124f565b92915050565b5f819050919050565b61128b81611279565b8114611295575f5ffd5b50565b5f813590506112a681611282565b92915050565b5f5f604083850312156112c2576112c161121b565b5b5f6112cf85828601611265565b92505060206112e085828601611298565b9150509250929050565b5f8115159050919050565b6112fe816112ea565b82525050565b5f6020820190506113175f8301846112f5565b92915050565b5f5f604083850312156113335761133261121b565b5b5f61134085828601611298565b925050602061135185828601611298565b9150509250929050565b61136481611279565b82525050565b5f60208201905061137d5f83018461135b565b92915050565b5f5f5f6060848603121561139a5761139961121b565b5b5f6113a786828701611265565b93505060206113b886828701611265565b92505060406113c986828701611298565b9150509250925092565b5f60ff82169050919050565b6113e8816113d3565b82525050565b5f6020820190506114015f8301846113df565b92915050565b5f819050919050565b5f61142a6114256114208461121f565b611407565b61121f565b9050919050565b5f61143b82611410565b9050919050565b5f61144c82611431565b9050919050565b61145c81611442565b82525050565b5f6020820190506114755f830184611453565b92915050565b5f602082840312156114905761148f61121b565b5b5f61149d84828501611265565b91505092915050565b6114af8161123e565b82525050565b5f6020820190506114c85f8301846114a6565b92915050565b5f5f604083850312156114e4576114e361121b565b5b5f6114f185828601611265565b925050602061150285828601611265565b9150509250929050565b7f4e487b71000000000000000000000000000000000000000000000000000000005f52602260045260245ffd5b5f600282049050600182168061155057607f821691505b6020821081036115635761156261150c565b5b50919050565b7f416c7265616479206672616374696f6e616c697a6564000000000000000000005f82015250565b5f61159d601683611195565b91506115a882611569565b602082019050919050565b5f6020820190508181035f8301526115ca81611591565b9050919050565b7f536861726520636f756e74206d757374206265203e20300000000000000000005f82015250565b5f611605601783611195565b9150611610826115d1565b602082019050919050565b5f6020820190508181035f830152611632816115f9565b9050919050565b5f60608201905061164c5f8301866114a6565b61165960208301856114a6565b611666604083018461135b565b949350505050565b7f4e487b71000000000000000000000000000000000000000000000000000000005f52601160045260245ffd5b5f8160011c9050919050565b5f5f8291508390505b60018511156116f0578086048111156116cc576116cb61166e565b5b60018516156116db5780820291505b80810290506116e98561169b565b94506116b0565b94509492505050565b5f8261170857600190506117c3565b81611715575f90506117c3565b816001811461172b576002811461173557611764565b60019150506117c3565b60ff8411156117475761174661166e565b5b8360020a91508482111561175e5761175d61166e565b5b506117c3565b5060208310610133831016604e8410600b84101617156117995782820a9050838111156117945761179361166e565b5b6117c3565b6117a684848460016116a7565b925090508184048111156117bd576117bc61166e565b5b81810290505b9392505050565b5f6117d482611279565b91506117df836113d3565b925061180c7fffffffffffffffffffffffffffffffffffffffffffffffffffffffffffffffff84846116f9565b905092915050565b5f61181e82611279565b915061182983611279565b925082820261183781611279565b9150828204841483151761184e5761184d61166e565b5b5092915050565b7f4e6f204e4654206c6f636b6564000000000000000000000000000000000000005f82015250565b5f611889600d83611195565b915061189482611855565b602082019050919050565b5f6020820190508181035f8301526118b68161187d565b9050919050565b7f4d757374206f776e20616c6c20736861726573000000000000000000000000005f82015250565b5f6118f1601383611195565b91506118fc826118bd565b602082019050919050565b5f6020820190508181035f83015261191e816118e5565b9050919050565b5f6060820190506119385f8301866114a6565b611945602083018561135b565b611952604083018461135b565b949350505050565b5f61196482611279565b915061196f83611279565b92508282019050808211156119875761198661166e565b5b9291505056fea2646970667358221220b61f85ebb2795700c7a4674d8cf38a074fd89e9a1cb2d3aa205ca3830d2b592664736f6c634300081e0033",
    "linkReferences": {}
  },
  "methodIdentifiers": {
    "allowance(address,address)": "dd62ed3e",
    "approve(address,uint256)": "095ea7b3",
    "balanceOf(address)": "70a08231",
    "decimals()": "313ce567",
    "fractionalize(uint256,uint256)": "0c386fda",
    "isLocked()": "a4e2d634",
    "lockedTokenId()": "ff4537ab",
    "name()": "06fdde03",
    "owner()": "8da5cb5b",
    "propertyNFT()": "37f76838",
    "renounceOwnership()": "715018a6",
    "symbol()": "95d89b41",
    "totalShares()": "3a98ef39",
    "totalSupply()": "18160ddd",
    "transfer(address,uint256)": "a9059cbb",
    "transferFrom(address,address,uint256)": "23b872dd",
    "transferOwnership(address)": "f2fde38b",
    "unfractionalize(address)": "907193fc"
  },
  "id": 40
}