{
    "abi": [
        {
            "type": "constructor",
            "inputs": [
                {
                    "name": "_usdc",
                    "type": "address",
                    "internalType": "address"
                },
                {
                    "name": "_shares",
                    "type": "address",
                    "internalType": "address"
                },
                {
                    "name": "_pricePerShare",
                    "type": "uint256",
                    "internalType": "uint256"
                }
            ],
            "stateMutability": "nonpayable"
        },
        {
            "type": "function",
            "name": "buyShares",
            "inputs": [
                {
                    "name": "amount",
                    "type": "uint256",
                    "internalType": "uint256"
                }
            ],
            "outputs": [],
            "stateMutability": "nonpayable"
        },
        {
            "type": "function",
            "name": "fundMarket",
            "inputs": [
                {
                    "name": "usdcAmount",
                    "type": "uint256",
                    "internalType": "uint256"
                },
                {
                    "name": "shareAmount",
                    "type": "uint256",
                    "internalType": "uint256"
                }
            ],
            "outputs": [],
            "stateMutability": "nonpayable"
        },
        {
            "type": "function",
            "name": "owner",
            "inputs": [],
            "outputs": [
                {
                    "name": "",
                    "type": "address",
                    "internalType": "address"
                }
            ],
            "stateMutability": "view"
        },
        {
            "type": "function",
            "name": "pricePerShare",
            "inputs": [],
            "outputs": [
                {
                    "name": "",
                    "type": "uint256",
                    "internalType": "uint256"
                }
            ],
            "stateMutability": "view"
        },
        {
            "type": "function",
            "name": "renounceOwnership",
            "inputs": [],
            "outputs": [],
            "stateMutability": "nonpayable"
        },
        {
            "type": "function",
            "name": "sellShares",
            "inputs": [
                {
                    "name": "amount",
                    "type": "uint256",
                    "internalType": "uint256"
                }
            ],
            "outputs": [],
            "stateMutability": "nonpayable"
        },
        {
            "type": "function",
            "name": "shares",
            "inputs": [],
            "outputs": [
                {
                    "name": "",
                    "type": "address",
                    "internalType": "contract IFractionalShares"
                }
            ],
            "stateMutability": "view"
        },
        {
            "type": "function",
            "name": "transferOwnership",
            "inputs": [
                {
                    "name": "newOwner",
                    "type": "address",
                    "internalType": "address"
                }
            ],
            "outputs": [],
            "stateMutability": "nonpayable"
        },
        {
            "type": "function",
            "name": "usdc",
            "inputs": [],
            "outputs": [
                {
                    "name": "",
                    "type": "address",
                    "internalType": "contract IERC20"
                }
            ],
            "stateMutability": "view"
        },
        {
            "type": "event",
            "name": "OwnershipTransferred",
            "inputs": [
                {
                    "name": "previousOwner",
                    "type": "address",
                    "indexed": true,
                    "internalType": "address"
                },
                {
                    "name": "newOwner",
                    "type": "address",
                    "indexed": true,
                    "internalType": "address"
                }
            ],
            "anonymous": false
        },
        {
            "type": "error",
            "name": "OwnableInvalidOwner",
            "inputs": [
                {
                    "name": "owner",
                    "type": "address",
                    "internalType": "address"
                }
            ]
        },
        {
            "type": "error",
            "name": "OwnableUnauthorizedAccount",
            "inputs": [
                {
                    "name": "account",
                    "type": "address",
                    "internalType": "address"
                }
            ]
        }
    ],
    "bytecode": {
        "object": "0x6080604052620f4240600355348015610016575f5ffd5b506040516111fd3803806111fd8339818101604052810190610038919061029a565b335f73ffffffffffffffffffffffffffffffffffffffff168173ffffffffffffffffffffffffffffffffffffffff16036100a9575f6040517f1e4fbdf70000000000000000000000000000000000000000000000000000000081526004016100a091906102f9565b60405180910390fd5b6100b88161014860201b60201c565b508260015f6101000a81548173ffffffffffffffffffffffffffffffffffffffff021916908373ffffffffffffffffffffffffffffffffffffffff1602179055508160025f6101000a81548173ffffffffffffffffffffffffffffffffffffffff021916908373ffffffffffffffffffffffffffffffffffffffff16021790555080600381905550505050610312565b5f5f5f9054906101000a900473ffffffffffffffffffffffffffffffffffffffff169050815f5f6101000a81548173ffffffffffffffffffffffffffffffffffffffff021916908373ffffffffffffffffffffffffffffffffffffffff1602179055508173ffffffffffffffffffffffffffffffffffffffff168173ffffffffffffffffffffffffffffffffffffffff167f8be0079c531659141344cd1fd0a4f28419497f9722a3daafe3b4186f6b6457e060405160405180910390a35050565b5f5ffd5b5f73ffffffffffffffffffffffffffffffffffffffff82169050919050565b5f6102368261020d565b9050919050565b6102468161022c565b8114610250575f5ffd5b50565b5f815190506102618161023d565b92915050565b5f819050919050565b61027981610267565b8114610283575f5ffd5b50565b5f8151905061029481610270565b92915050565b5f5f5f606084860312156102b1576102b0610209565b5b5f6102be86828701610253565b93505060206102cf86828701610253565b92505060406102e086828701610286565b9150509250925092565b6102f38161022c565b82525050565b5f60208201905061030c5f8301846102ea565b92915050565b610ede8061031f5f395ff3fe608060405234801561000f575f5ffd5b5060043610610091575f3560e01c8063715018a611610064578063715018a6146101095780638da5cb5b1461011357806399530b0614610131578063d1a93d181461014f578063f2fde38b1461016b57610091565b806303314efa1461009557806317fc1a81146100b35780633e413bee146100cf5780634ba8ae81146100ed575b5f5ffd5b61009d610187565b6040516100aa91906109be565b60405180910390f35b6100cd60048036038101906100c89190610a0e565b6101ac565b005b6100d7610372565b6040516100e49190610a6c565b60405180910390f35b61010760048036038101906101029190610a85565b610397565b005b610111610564565b005b61011b610577565b6040516101289190610ad0565b60405180910390f35b61013961059e565b6040516101469190610af8565b60405180910390f35b61016960048036038101906101649190610a85565b6105a4565b005b61018560048036038101906101809190610b3b565b610771565b005b60025f9054906101000a900473ffffffffffffffffffffffffffffffffffffffff1681565b6101b46107f5565b60015f9054906101000a900473ffffffffffffffffffffffffffffffffffffffff1673ffffffffffffffffffffffffffffffffffffffff166323b872dd3330856040518463ffffffff1660e01b815260040161021293929190610b66565b6020604051808303815f875af115801561022e573d5f5f3e3d5ffd5b505050506040513d601f19601f820116820180604052508101906102529190610bd0565b610291576040517f08c379a000000000000000000000000000000000000000000000000000000000815260040161028890610c55565b60405180910390fd5b60025f9054906101000a900473ffffffffffffffffffffffffffffffffffffffff1673ffffffffffffffffffffffffffffffffffffffff166323b872dd3330846040518463ffffffff1660e01b81526004016102ef93929190610b66565b6020604051808303815f875af115801561030b573d5f5f3e3d5ffd5b505050506040513d601f19601f8201168201806040525081019061032f9190610bd0565b61036e576040517f08c379a000000000000000000000000000000000000000000000000000000000815260040161036590610cbd565b60405180910390fd5b5050565b60015f9054906101000a900473ffffffffffffffffffffffffffffffffffffffff1681565b60025f9054906101000a900473ffffffffffffffffffffffffffffffffffffffff1673ffffffffffffffffffffffffffffffffffffffff166323b872dd3330846040518463ffffffff1660e01b81526004016103f593929190610b66565b6020604051808303815f875af1158015610411573d5f5f3e3d5ffd5b505050506040513d601f19601f820116820180604052508101906104359190610bd0565b610474576040517f08c379a000000000000000000000000000000000000000000000000000000000815260040161046b90610d25565b60405180910390fd5b5f600354826104839190610d70565b905060015f9054906101000a900473ffffffffffffffffffffffffffffffffffffffff1673ffffffffffffffffffffffffffffffffffffffff1663a9059cbb33836040518363ffffffff1660e01b81526004016104e1929190610db1565b6020604051808303815f875af11580156104fd573d5f5f3e3d5ffd5b505050506040513d601f19601f820116820180604052508101906105219190610bd0565b610560576040517f08c379a000000000000000000000000000000000000000000000000000000000815260040161055790610e22565b60405180910390fd5b5050565b61056c6107f5565b6105755f61087c565b565b5f5f5f9054906101000a900473ffffffffffffffffffffffffffffffffffffffff16905090565b60035481565b5f600354826105b39190610d70565b905060015f9054906101000a900473ffffffffffffffffffffffffffffffffffffffff1673ffffffffffffffffffffffffffffffffffffffff166323b872dd3330846040518463ffffffff1660e01b815260040161061393929190610b66565b6020604051808303815f875af115801561062f573d5f5f3e3d5ffd5b505050506040513d601f19601f820116820180604052508101906106539190610bd0565b610692576040517f08c379a000000000000000000000000000000000000000000000000000000000815260040161068990610e8a565b60405180910390fd5b60025f9054906101000a900473ffffffffffffffffffffffffffffffffffffffff1673ffffffffffffffffffffffffffffffffffffffff1663a9059cbb33846040518363ffffffff1660e01b81526004016106ee929190610db1565b6020604051808303815f875af115801561070a573d5f5f3e3d5ffd5b505050506040513d601f19601f8201168201806040525081019061072e9190610bd0565b61076d576040517f08c379a000000000000000000000000000000000000000000000000000000000815260040161076490610d25565b60405180910390fd5b5050565b6107796107f5565b5f73ffffffffffffffffffffffffffffffffffffffff168173ffffffffffffffffffffffffffffffffffffffff16036107e9575f6040517f1e4fbdf70000000000000000000000000000000000000000000000000000000081526004016107e09190610ad0565b60405180910390fd5b6107f28161087c565b50565b6107fd61093d565b73ffffffffffffffffffffffffffffffffffffffff1661081b610577565b73ffffffffffffffffffffffffffffffffffffffff161461087a5761083e61093d565b6040517f118cdaa70000000000000000000000000000000000000000000000000000000081526004016108719190610ad0565b60405180910390fd5b565b5f5f5f9054906101000a900473ffffffffffffffffffffffffffffffffffffffff169050815f5f6101000a81548173ffffffffffffffffffffffffffffffffffffffff021916908373ffffffffffffffffffffffffffffffffffffffff1602179055508173ffffffffffffffffffffffffffffffffffffffff168173ffffffffffffffffffffffffffffffffffffffff167f8be0079c531659141344cd1fd0a4f28419497f9722a3daafe3b4186f6b6457e060405160405180910390a35050565b5f33905090565b5f73ffffffffffffffffffffffffffffffffffffffff82169050919050565b5f819050919050565b5f61098661098161097c84610944565b610963565b610944565b9050919050565b5f6109978261096c565b9050919050565b5f6109a88261098d565b9050919050565b6109b88161099e565b82525050565b5f6020820190506109d15f8301846109af565b92915050565b5f5ffd5b5f819050919050565b6109ed816109db565b81146109f7575f5ffd5b50565b5f81359050610a08816109e4565b92915050565b5f5f60408385031215610a2457610a236109d7565b5b5f610a31858286016109fa565b9250506020610a42858286016109fa565b9150509250929050565b5f610a568261098d565b9050919050565b610a6681610a4c565b82525050565b5f602082019050610a7f5f830184610a5d565b92915050565b5f60208284031215610a9a57610a996109d7565b5b5f610aa7848285016109fa565b91505092915050565b5f610aba82610944565b9050919050565b610aca81610ab0565b82525050565b5f602082019050610ae35f830184610ac1565b92915050565b610af2816109db565b82525050565b5f602082019050610b0b5f830184610ae9565b92915050565b610b1a81610ab0565b8114610b24575f5ffd5b50565b5f81359050610b3581610b11565b92915050565b5f60208284031215610b5057610b4f6109d7565b5b5f610b5d84828501610b27565b91505092915050565b5f606082019050610b795f830186610ac1565b610b866020830185610ac1565b610b936040830184610ae9565b949350505050565b5f8115159050919050565b610baf81610b9b565b8114610bb9575f5ffd5b50565b5f81519050610bca81610ba6565b92915050565b5f60208284031215610be557610be46109d7565b5b5f610bf284828501610bbc565b91505092915050565b5f82825260208201905092915050565b7f46756e642055534443206661696c6564000000000000000000000000000000005f82015250565b5f610c3f601083610bfb565b9150610c4a82610c0b565b602082019050919050565b5f6020820190508181035f830152610c6c81610c33565b9050919050565b7f46756e6420536861726573206661696c656400000000000000000000000000005f82015250565b5f610ca7601283610bfb565b9150610cb282610c73565b602082019050919050565b5f6020820190508181035f830152610cd481610c9b565b9050919050565b7f5368617265207472616e73666572206661696c656400000000000000000000005f82015250565b5f610d0f601583610bfb565b9150610d1a82610cdb565b602082019050919050565b5f6020820190508181035f830152610d3c81610d03565b9050919050565b7f4e487b71000000000000000000000000000000000000000000000000000000005f52601160045260245ffd5b5f610d7a826109db565b9150610d85836109db565b9250828202610d93816109db565b91508282048414831517610daa57610da9610d43565b5b5092915050565b5f604082019050610dc45f830185610ac1565b610dd16020830184610ae9565b9392505050565b7f55534443207061796f7574206661696c656400000000000000000000000000005f82015250565b5f610e0c601283610bfb565b9150610e1782610dd8565b602082019050919050565b5f6020820190508181035f830152610e3981610e00565b9050919050565b7f55534443207472616e73666572206661696c65640000000000000000000000005f82015250565b5f610e74601483610bfb565b9150610e7f82610e40565b602082019050919050565b5f6020820190508181035f830152610ea181610e68565b905091905056fea26469706673582212206d3a502377756dc46f5190ef12847cc43322861564da910928ac701715eb123464736f6c634300081e0033",
        "linkReferences": {}
    },
    "methodIdentifiers": {
        "buyShares(uint256)": "d1a93d18",
        "fundMarket(uint256,uint256)": "17fc1a81",
        "owner()": "8da5cb5b",
        "pricePerShare()": "99530b06",
        "renounceOwnership()": "715018a6",
        "sellShares(uint256)": "4ba8ae81",
        "shares()": "03314efa",
        "transferOwnership(address)": "f2fde38b",
        "usdc()": "3e413bee"
    },
    "id": 3
}