{
  "abi": [
    {
      "type": "constructor",
      "inputs": [
        {
          "name": "to",
          "type": "address",
          "internalType": "address"
        },
        {
          "name": "name_",
          "type": "string",
          "internalType": "string"
        },
        {
          "name": "symbol_",
          "type": "string",
          "internalType": "string"
        },
        {
          "name": "property_name_",
          "type": "string",
          "internalType": "string"
        },
        {
          "name": "typeOf_",
          "type": "string",
          "internalType": "string"
        },
        {
          "name": "description_",
          "type": "string",
          "internalType": "string"
        },
        {
          "name": "image_",
          "type": "string",
          "internalType": "string"
        }
      ],
      "stateMutability": "nonpayable"
    },
    {
      "type": "function",
      "name": "approve",
      "inputs": [
        {
          "name": "to",
          "type": "address",
          "internalType": "address"
        },
        {
          "name": "tokenId",
          "type": "uint256",
          "internalType": "uint256"
        }
      ],
      "outputs": [],
      "stateMutability": "nonpayable"
    },
    {
      "type": "function",
      "name": "balanceOf",
      "inputs": [
        {
          "name": "owner",
          "type": "address",
          "internalType": "address"
        }
      ],
      "outputs": [
        {
          "name": "",
          "type": "uint256",
          "internalType": "uint256"
        }
      ],
      "stateMutability": "view"
    },
    {
      "type": "function",
      "name": "getApproved",
      "inputs": [
        {
          "name": "tokenId",
          "type": "uint256",
          "internalType": "uint256"
        }
      ],
      "outputs": [
        {
          "name": "",
          "type": "address",
          "internalType": "address"
        }
      ],
      "stateMutability": "view"
    },
    {
      "type": "function",
      "name": "getProperty",
      "inputs": [],
      "outputs": [
        {
          "name": "",
          "type": "tuple",
          "internalType": "struct PropertyNFT.PropertyMetadata",
          "components": [
            {
              "name": "name",
              "type": "string",
              "internalType": "string"
            },
            {
              "name": "type_of",
              "type": "string",
              "internalType": "string"
            },
            {
              "name": "description",
              "type": "string",
              "internalType": "string"
            },
            {
              "name": "image",
              "type": "string",
              "internalType": "string"
            },
            {
              "name": "isActive",
              "type": "bool",
              "internalType": "bool"
            }
          ]
        }
      ],
      "stateMutability": "view"
    },
    {
      "type": "function",
      "name": "isApprovedForAll",
      "inputs": [
        {
          "name": "owner",
          "type": "address",
          "internalType": "address"
        },
        {
          "name": "operator",
          "type": "address",
          "internalType": "address"
        }
      ],
      "outputs": [
        {
          "name": "",
          "type": "bool",
          "internalType": "bool"
        }
      ],
      "stateMutability": "view"
    },
    {
      "type": "function",
      "name": "name",
      "inputs": [],
      "outputs": [
        {
          "name": "",
          "type": "string",
          "internalType": "string"
        }
      ],
      "stateMutability": "view"
    },
    {
      "type": "function",
      "name": "owner",
      "inputs": [],
      "outputs": [
        {
          "name": "",
          "type": "address",
          "internalType": "address"
        }
      ],
      "stateMutability": "view"
    },
    {
      "type": "function",
      "name": "ownerOf",
      "inputs": [
        {
          "name": "tokenId",
          "type": "uint256",
          "internalType": "uint256"
        }
      ],
      "outputs": [
        {
          "name": "",
          "type": "address",
          "internalType": "address"
        }
      ],
      "stateMutability": "view"
    },
    {
      "type": "function",
      "name": "renounceOwnership",
      "inputs": [],
      "outputs": [],
      "stateMutability": "nonpayable"
    },
    {
      "type": "function",
      "name": "safeTransferFrom",
      "inputs": [
        {
          "name": "from",
          "type": "address",
          "internalType": "address"
        },
        {
          "name": "to",
          "type": "address",
          "internalType": "address"
        },
        {
          "name": "tokenId",
          "type": "uint256",
          "internalType": "uint256"
        }
      ],
      "outputs": [],
      "stateMutability": "nonpayable"
    },
    {
      "type": "function",
      "name": "safeTransferFrom",
      "inputs": [
        {
          "name": "from",
          "type": "address",
          "internalType": "address"
        },
        {
          "name": "to",
          "type": "address",
          "internalType": "address"
        },
        {
          "name": "tokenId",
          "type": "uint256",
          "internalType": "uint256"
        },
        {
          "name": "data",
          "type": "bytes",
          "internalType": "bytes"
        }
      ],
      "outputs": [],
      "stateMutability": "nonpayable"
    },
    {
      "type": "function",
      "name": "setApprovalForAll",
      "inputs": [
        {
          "name": "operator",
          "type": "address",
          "internalType": "address"
        },
        {
          "name": "approved",
          "type": "bool",
          "internalType": "bool"
        }
      ],
      "outputs": [],
      "stateMutability": "nonpayable"
    },
    {
      "type": "function",
      "name": "supportsInterface",
      "inputs": [
        {
          "name": "interfaceId",
          "type": "bytes4",
          "internalType": "bytes4"
        }
      ],
      "outputs": [
        {
          "name": "",
          "type": "bool",
          "internalType": "bool"
        }
      ],
      "stateMutability": "view"
    },
    {
      "type": "function",
      "name": "symbol",
      "inputs": [],
      "outputs": [
        {
          "name": "",
          "type": "string",
          "internalType": "string"
        }
      ],
      "stateMutability": "view"
    },
    {
      "type": "function",
      "name": "tokenURI",
      "inputs": [
        {
          "name": "tokenId",
          "type": "uint256",
          "internalType": "uint256"
        }
      ],
      "outputs": [
        {
          "name": "",
          "type": "string",
          "internalType": "string"
        }
      ],
      "stateMutability": "view"
    },
    {
      "type": "function",
      "name": "transferFrom",
      "inputs": [
        {
          "name": "from",
          "type": "address",
          "internalType": "address"
        },
        {
          "name": "to",
          "type": "address",
          "internalType": "address"
        },
        {
          "name": "tokenId",
          "type": "uint256",
          "internalType": "uint256"
        }
      ],
      "outputs": [],
      "stateMutability": "nonpayable"
    },
    {
      "type": "function",
      "name": "transferOwnership",
      "inputs": [
        {
          "name": "newOwner",
          "type": "address",
          "internalType": "address"
        }
      ],
      "outputs": [],
      "stateMutability": "nonpayable"
    },
    {
      "type": "event",
      "name": "Approval",
      "inputs": [
        {
          "name": "owner",
          "type": "address",
          "indexed": true,
          "internalType": "address"
        },
        {
          "name": "approved",
          "type": "address",
          "indexed": true,
          "internalType": "address"
        },
        {
          "name": "tokenId",
          "type": "uint256",
          "indexed": true,
          "internalType": "uint256"
        }
      ],
      "anonymous": false
    },
    {
      "type": "event",
      "name": "ApprovalForAll",
      "inputs": [
        {
          "name": "owner",
          "type": "address",
          "indexed": true,
          "internalType": "address"
        },
        {
          "name": "operator",
          "type": "address",
          "indexed": true,
          "internalType": "address"
        },
        {
          "name": "approved",
          "type": "bool",
          "indexed": false,
          "internalType": "bool"
        }
      ],
      "anonymous": false
    },
    {
      "type": "event",
      "name": "OwnershipTransferred",
      "inputs": [
        {
          "name": "previousOwner",
          "type": "address",
          "indexed": true,
          "internalType": "address"
        },
        {
          "name": "newOwner",
          "type": "address",
          "indexed": true,
          "internalType": "address"
        }
      ],
      "anonymous": false
    },
    {
      "type": "event",
      "name": "Transfer",
      "inputs": [
        {
          "name": "from",
          "type": "address",
          "indexed": true,
          "internalType": "address"
        },
        {
          "name": "to",
          "type": "address",
          "indexed": true,
          "internalType": "address"
        },
        {
          "name": "tokenId",
          "type": "uint256",
          "indexed": true,
          "internalType": "uint256"
        }
      ],
      "anonymous": false
    },
    {
      "type": "error",
      "name": "ERC721IncorrectOwner",
      "inputs": [
        {
          "name": "sender",
          "type": "address",
          "internalType": "address"
        },
        {
          "name": "tokenId",
          "type": "uint256",
          "internalType": "uint256"
        },
        {
          "name": "owner",
          "type": "address",
          "internalType": "address"
        }
      ]
    },
    {
      "type": "error",
      "name": "ERC721InsufficientApproval",
      "inputs": [
        {
          "name": "operator",
          "type": "address",
          "internalType": "address"
        },
        {
          "name": "tokenId",
          "type": "uint256",
          "internalType": "uint256"
        }
      ]
    },
    {
      "type": "error",
      "name": "ERC721InvalidApprover",
      "inputs": [
        {
          "name": "approver",
          "type": "address",
          "internalType": "address"
        }
      ]
    },
    {
      "type": "error",
      "name": "ERC721InvalidOperator",
      "inputs": [
        {
          "name": "operator",
          "type": "address",
          "internalType": "address"
        }
      ]
    },
    {
      "type": "error",
      "name": "ERC721InvalidOwner",
      "inputs": [
        {
          "name": "owner",
          "type": "address",
          "internalType": "address"
        }
      ]
    },
    {
      "type": "error",
      "name": "ERC721InvalidReceiver",
      "inputs": [
        {
          "name": "receiver",
          "type": "address",
          "internalType": "address"
        }
      ]
    },
    {
      "type": "error",
      "name": "ERC721InvalidSender",
      "inputs": [
        {
          "name": "sender",
          "type": "address",
          "internalType": "address"
        }
      ]
    },
    {
      "type": "error",
      "name": "ERC721NonexistentToken",
      "inputs": [
        {
          "name": "tokenId",
          "type": "uint256",
          "internalType": "uint256"
        }
      ]
    },
    {
      "type": "error",
      "name": "OwnableInvalidOwner",
      "inputs": [
        {
          "name": "owner",
          "type": "address",
          "internalType": "address"
        }
      ]
    },
    {
      "type": "error",
      "name": "OwnableUnauthorizedAccount",
      "inputs": [
        {
          "name": "account",
          "type": "address",
          "internalType": "address"
        }
      ]
    }
  ],
  "bytecode": {
    "object": "0x608060405234801561000f575f5ffd5b5060405161332838038061332883398181016040528101906100319190610c07565b338686815f90816100429190610f5c565b5080600190816100529190610f5c565b5050505f73ffffffffffffffffffffffffffffffffffffffff168173ffffffffffffffffffffffffffffffffffffffff16036100c5575f6040517f1e4fbdf70000000000000000000000000000000000000000000000000000000081526004016100bc919061103a565b60405180910390fd5b6100d48161019b60201b60201c565b505f600190506100ea888261025e60201b60201c565b6040518060a001604052808681526020018581526020018481526020018381526020016001151581525060075f820151815f0190816101299190610f5c565b50602082015181600101908161013f9190610f5c565b5060408201518160020190816101559190610f5c565b50606082015181600301908161016b9190610f5c565b506080820151816004015f6101000a81548160ff02191690831515021790555090505050505050505050506110a2565b5f60065f9054906101000a900473ffffffffffffffffffffffffffffffffffffffff1690508160065f6101000a81548173ffffffffffffffffffffffffffffffffffffffff021916908373ffffffffffffffffffffffffffffffffffffffff1602179055508173ffffffffffffffffffffffffffffffffffffffff168173ffffffffffffffffffffffffffffffffffffffff167f8be0079c531659141344cd1fd0a4f28419497f9722a3daafe3b4186f6b6457e060405160405180910390a35050565b5f73ffffffffffffffffffffffffffffffffffffffff168273ffffffffffffffffffffffffffffffffffffffff16036102ce575f6040517f64a0ae920000000000000000000000000000000000000000000000000000000081526004016102c5919061103a565b60405180910390fd5b5f6102e083835f61035760201b60201c565b90505f73ffffffffffffffffffffffffffffffffffffffff168173ffffffffffffffffffffffffffffffffffffffff1614610352575f6040517f73c6ac6e000000000000000000000000000000000000000000000000000000008152600401610349919061103a565b60405180910390fd5b505050565b5f5f6103688461057460201b60201c565b90505f73ffffffffffffffffffffffffffffffffffffffff168373ffffffffffffffffffffffffffffffffffffffff16146103af576103ae8184866105ad60201b60201c565b5b5f73ffffffffffffffffffffffffffffffffffffffff168173ffffffffffffffffffffffffffffffffffffffff1614610440576103f45f855f5f61067660201b60201c565b600160035f8373ffffffffffffffffffffffffffffffffffffffff1673ffffffffffffffffffffffffffffffffffffffff1681526020019081526020015f205f82825403925050819055505b5f73ffffffffffffffffffffffffffffffffffffffff168573ffffffffffffffffffffffffffffffffffffffff16146104bf57600160035f8773ffffffffffffffffffffffffffffffffffffffff1673ffffffffffffffffffffffffffffffffffffffff1681526020019081526020015f205f82825401925050819055505b8460025f8681526020019081526020015f205f6101000a81548173ffffffffffffffffffffffffffffffffffffffff021916908373ffffffffffffffffffffffffffffffffffffffff160217905550838573ffffffffffffffffffffffffffffffffffffffff168273ffffffffffffffffffffffffffffffffffffffff167fddf252ad1be2c89b69c2b068fc378daa952ba7f163c4a11628f55a4df523b3ef60405160405180910390a4809150509392505050565b5f60025f8381526020019081526020015f205f9054906101000a900473ffffffffffffffffffffffffffffffffffffffff169050919050565b6105be83838361084160201b60201c565b610671575f73ffffffffffffffffffffffffffffffffffffffff168373ffffffffffffffffffffffffffffffffffffffff160361063257806040517f7e2732890000000000000000000000000000000000000000000000000000000081526004016106299190611062565b60405180910390fd5b81816040517f177e802f00000000000000000000000000000000000000000000000000000000815260040161066892919061107b565b60405180910390fd5b505050565b80806106ae57505f73ffffffffffffffffffffffffffffffffffffffff168273ffffffffffffffffffffffffffffffffffffffff1614155b156107ec575f6106c38461090d60201b60201c565b90505f73ffffffffffffffffffffffffffffffffffffffff168373ffffffffffffffffffffffffffffffffffffffff161415801561072d57508273ffffffffffffffffffffffffffffffffffffffff168173ffffffffffffffffffffffffffffffffffffffff1614155b80156107465750610744818461099960201b60201c565b155b1561078857826040517fa9fbf51f00000000000000000000000000000000000000000000000000000000815260040161077f919061103a565b60405180910390fd5b81156107ea57838573ffffffffffffffffffffffffffffffffffffffff168273ffffffffffffffffffffffffffffffffffffffff167f8c5be1e5ebec7d5bd14f71427d1e84f3dd0314c0f7b2291e5b200ac8c7c3b92560405160405180910390a45b505b8360045f8581526020019081526020015f205f6101000a81548173ffffffffffffffffffffffffffffffffffffffff021916908373ffffffffffffffffffffffffffffffffffffffff16021790555050505050565b5f5f73ffffffffffffffffffffffffffffffffffffffff168373ffffffffffffffffffffffffffffffffffffffff161415801561090457508273ffffffffffffffffffffffffffffffffffffffff168473ffffffffffffffffffffffffffffffffffffffff1614806108bf57506108be848461099960201b60201c565b5b8061090357508273ffffffffffffffffffffffffffffffffffffffff166108eb83610a2760201b60201c565b73ffffffffffffffffffffffffffffffffffffffff16145b5b90509392505050565b5f5f61091e8361057460201b60201c565b90505f73ffffffffffffffffffffffffffffffffffffffff168173ffffffffffffffffffffffffffffffffffffffff160361099057826040517f7e2732890000000000000000000000000000000000000000000000000000000081526004016109879190611062565b60405180910390fd5b80915050919050565b5f60055f8473ffffffffffffffffffffffffffffffffffffffff1673ffffffffffffffffffffffffffffffffffffffff1681526020019081526020015f205f8373ffffffffffffffffffffffffffffffffffffffff1673ffffffffffffffffffffffffffffffffffffffff1681526020019081526020015f205f9054906101000a900460ff16905092915050565b5f60045f8381526020019081526020015f205f9054906101000a900473ffffffffffffffffffffffffffffffffffffffff169050919050565b5f604051905090565b5f5ffd5b5f5ffd5b5f73ffffffffffffffffffffffffffffffffffffffff82169050919050565b5f610a9a82610a71565b9050919050565b610aaa81610a90565b8114610ab4575f5ffd5b50565b5f81519050610ac581610aa1565b92915050565b5f5ffd5b5f5ffd5b5f601f19601f8301169050919050565b7f4e487b71000000000000000000000000000000000000000000000000000000005f52604160045260245ffd5b610b1982610ad3565b810181811067ffffffffffffffff82111715610b3857610b37610ae3565b5b80604052505050565b5f610b4a610a60565b9050610b568282610b10565b919050565b5f67ffffffffffffffff821115610b7557610b74610ae3565b5b610b7e82610ad3565b9050602081019050919050565b8281835e5f83830152505050565b5f610bab610ba684610b5b565b610b41565b905082815260208101848484011115610bc757610bc6610acf565b5b610bd2848285610b8b565b509392505050565b5f82601f830112610bee57610bed610acb565b5b8151610bfe848260208601610b99565b91505092915050565b5f5f5f5f5f5f5f60e0888a031215610c2257610c21610a69565b5b5f610c2f8a828b01610ab7565b975050602088015167ffffffffffffffff811115610c5057610c4f610a6d565b5b610c5c8a828b01610bda565b965050604088015167ffffffffffffffff811115610c7d57610c7c610a6d565b5b610c898a828b01610bda565b955050606088015167ffffffffffffffff811115610caa57610ca9610a6d565b5b610cb68a828b01610bda565b945050608088015167ffffffffffffffff811115610cd757610cd6610a6d565b5b610ce38a828b01610bda565b93505060a088015167ffffffffffffffff811115610d0457610d03610a6d565b5b610d108a828b01610bda565b92505060c088015167ffffffffffffffff811115610d3157610d30610a6d565b5b610d3d8a828b01610bda565b91505092959891949750929550565b5f81519050919050565b7f4e487b71000000000000000000000000000000000000000000000000000000005f52602260045260245ffd5b5f6002820490506001821680610d9a57607f821691505b602082108103610dad57610dac610d56565b5b50919050565b5f819050815f5260205f209050919050565b5f6020601f8301049050919050565b5f82821b905092915050565b5f60088302610e0f7fffffffffffffffffffffffffffffffffffffffffffffffffffffffffffffffff82610dd4565b610e198683610dd4565b95508019841693508086168417925050509392505050565b5f819050919050565b5f819050919050565b5f610e5d610e58610e5384610e31565b610e3a565b610e31565b9050919050565b5f819050919050565b610e7683610e43565b610e8a610e8282610e64565b848454610de0565b825550505050565b5f5f905090565b610ea1610e92565b610eac818484610e6d565b505050565b5b81811015610ecf57610ec45f82610e99565b600181019050610eb2565b5050565b601f821115610f1457610ee581610db3565b610eee84610dc5565b81016020851015610efd578190505b610f11610f0985610dc5565b830182610eb1565b50505b505050565b5f82821c905092915050565b5f610f345f1984600802610f19565b1980831691505092915050565b5f610f4c8383610f25565b9150826002028217905092915050565b610f6582610d4c565b67ffffffffffffffff811115610f7e57610f7d610ae3565b5b610f888254610d83565b610f93828285610ed3565b5f60209050601f831160018114610fc4575f8415610fb2578287015190505b610fbc8582610f41565b865550611023565b601f198416610fd286610db3565b5f5b82811015610ff957848901518255600182019150602085019450602081019050610fd4565b868310156110165784890151611012601f891682610f25565b8355505b6001600288020188555050505b505050505050565b61103481610a90565b82525050565b5f60208201905061104d5f83018461102b565b92915050565b61105c81610e31565b82525050565b5f6020820190506110755f830184611053565b92915050565b5f60408201905061108e5f83018561102b565b61109b6020830184611053565b9392505050565b612279806110af5f395ff3fe608060405234801561000f575f5ffd5b5060043610610109575f3560e01c806370a08231116100a0578063a22cb4651161006f578063a22cb465146102a3578063b88d4fde146102bf578063c87b56dd146102db578063e985e9c51461030b578063f2fde38b1461033b57610109565b806370a082311461022d578063715018a61461025d5780638da5cb5b1461026757806395d89b411461028557610109565b8063095ea7b3116100dc578063095ea7b3146101a957806323b872dd146101c557806342842e0e146101e15780636352211e146101fd57610109565b806301ffc9a71461010d57806306fdde031461013d578063077510701461015b578063081812fc14610179575b5f5ffd5b610127600480360381019061012291906117d2565b610357565b6040516101349190611817565b60405180910390f35b610145610438565b60405161015291906118a0565b60405180910390f35b6101636104c7565b604051610170919061199f565b60405180910390f35b610193600480360381019061018e91906119f2565b61073a565b6040516101a09190611a5c565b60405180910390f35b6101c360048036038101906101be9190611a9f565b610755565b005b6101df60048036038101906101da9190611add565b61076b565b005b6101fb60048036038101906101f69190611add565b61086a565b005b610217600480360381019061021291906119f2565b610889565b6040516102249190611a5c565b60405180910390f35b61024760048036038101906102429190611b2d565b61089a565b6040516102549190611b67565b60405180910390f35b610265610950565b005b61026f610963565b60405161027c9190611a5c565b60405180910390f35b61028d61098b565b60405161029a91906118a0565b60405180910390f35b6102bd60048036038101906102b89190611baa565b610a1b565b005b6102d960048036038101906102d49190611d14565b610a31565b005b6102f560048036038101906102f091906119f2565b610a56565b60405161030291906118a0565b60405180910390f35b61032560048036038101906103209190611d94565b610b04565b6040516103329190611817565b60405180910390f35b61035560048036038101906103509190611b2d565b610b92565b005b5f7f80ac58cd000000000000000000000000000000000000000000000000000000007bffffffffffffffffffffffffffffffffffffffffffffffffffffffff1916827bffffffffffffffffffffffffffffffffffffffffffffffffffffffff1916148061042157507f5b5e139f000000000000000000000000000000000000000000000000000000007bffffffffffffffffffffffffffffffffffffffffffffffffffffffff1916827bffffffffffffffffffffffffffffffffffffffffffffffffffffffff1916145b80610431575061043082610c16565b5b9050919050565b60605f805461044690611dff565b80601f016020809104026020016040519081016040528092919081815260200182805461047290611dff565b80156104bd5780601f10610494576101008083540402835291602001916104bd565b820191905f5260205f20905b8154815290600101906020018083116104a057829003601f168201915b5050505050905090565b6104cf61173c565b60076040518060a00160405290815f820180546104eb90611dff565b80601f016020809104026020016040519081016040528092919081815260200182805461051790611dff565b80156105625780601f1061053957610100808354040283529160200191610562565b820191905f5260205f20905b81548152906001019060200180831161054557829003601f168201915b5050505050815260200160018201805461057b90611dff565b80601f01602080910402602001604051908101604052809291908181526020018280546105a790611dff565b80156105f25780601f106105c9576101008083540402835291602001916105f2565b820191905f5260205f20905b8154815290600101906020018083116105d557829003601f168201915b5050505050815260200160028201805461060b90611dff565b80601f016020809104026020016040519081016040528092919081815260200182805461063790611dff565b80156106825780601f1061065957610100808354040283529160200191610682565b820191905f5260205f20905b81548152906001019060200180831161066557829003601f168201915b5050505050815260200160038201805461069b90611dff565b80601f01602080910402602001604051908101604052809291908181526020018280546106c790611dff565b80156107125780601f106106e957610100808354040283529160200191610712565b820191905f5260205f20905b8154815290600101906020018083116106f557829003601f168201915b50505050508152602001600482015f9054906101000a900460ff161515151581525050905090565b5f61074482610c7f565b5061074e82610d05565b9050919050565b6107678282610762610d3e565b610d45565b5050565b5f73ffffffffffffffffffffffffffffffffffffffff168273ffffffffffffffffffffffffffffffffffffffff16036107db575f6040517f64a0ae920000000000000000000000000000000000000000000000000000000081526004016107d29190611a5c565b60405180910390fd5b5f6107ee83836107e9610d3e565b610d57565b90508373ffffffffffffffffffffffffffffffffffffffff168173ffffffffffffffffffffffffffffffffffffffff1614610864578382826040517f64283d7b00000000000000000000000000000000000000000000000000000000815260040161085b93929190611e2f565b60405180910390fd5b50505050565b61088483838360405180602001604052805f815250610a31565b505050565b5f61089382610c7f565b9050919050565b5f5f73ffffffffffffffffffffffffffffffffffffffff168273ffffffffffffffffffffffffffffffffffffffff160361090b575f6040517f89c62b640000000000000000000000000000000000000000000000000000000081526004016109029190611a5c565b60405180910390fd5b60035f8373ffffffffffffffffffffffffffffffffffffffff1673ffffffffffffffffffffffffffffffffffffffff1681526020019081526020015f20549050919050565b610958610f62565b6109615f610fe9565b565b5f60065f9054906101000a900473ffffffffffffffffffffffffffffffffffffffff16905090565b60606001805461099a90611dff565b80601f01602080910402602001604051908101604052809291908181526020018280546109c690611dff565b8015610a115780601f106109e857610100808354040283529160200191610a11565b820191905f5260205f20905b8154815290600101906020018083116109f457829003601f168201915b5050505050905090565b610a2d610a26610d3e565b83836110ac565b5050565b610a3c84848461076b565b610a50610a47610d3e565b85858585611215565b50505050565b60605f73ffffffffffffffffffffffffffffffffffffffff16610a78836113c1565b73ffffffffffffffffffffffffffffffffffffffff1603610ace576040517f08c379a0000000000000000000000000000000000000000000000000000000008152600401610ac590611eae565b60405180910390fd5b60075f0160076002016007600301604051602001610aee939291906120da565b6040516020818303038152906040529050919050565b5f60055f8473ffffffffffffffffffffffffffffffffffffffff1673ffffffffffffffffffffffffffffffffffffffff1681526020019081526020015f205f8373ffffffffffffffffffffffffffffffffffffffff1673ffffffffffffffffffffffffffffffffffffffff1681526020019081526020015f205f9054906101000a900460ff16905092915050565b610b9a610f62565b5f73ffffffffffffffffffffffffffffffffffffffff168173ffffffffffffffffffffffffffffffffffffffff1603610c0a575f6040517f1e4fbdf7000000000000000000000000000000000000000000000000000000008152600401610c019190611a5c565b60405180910390fd5b610c1381610fe9565b50565b5f7f01ffc9a7000000000000000000000000000000000000000000000000000000007bffffffffffffffffffffffffffffffffffffffffffffffffffffffff1916827bffffffffffffffffffffffffffffffffffffffffffffffffffffffff1916149050919050565b5f5f610c8a836113c1565b90505f73ffffffffffffffffffffffffffffffffffffffff168173ffffffffffffffffffffffffffffffffffffffff1603610cfc57826040517f7e273289000000000000000000000000000000000000000000000000000000008152600401610cf39190611b67565b60405180910390fd5b80915050919050565b5f60045f8381526020019081526020015f205f9054906101000a900473ffffffffffffffffffffffffffffffffffffffff169050919050565b5f33905090565b610d5283838360016113fa565b505050565b5f5f610d62846113c1565b90505f73ffffffffffffffffffffffffffffffffffffffff168373ffffffffffffffffffffffffffffffffffffffff1614610da357610da28184866115b9565b5b5f73ffffffffffffffffffffffffffffffffffffffff168173ffffffffffffffffffffffffffffffffffffffff1614610e2e57610de25f855f5f6113fa565b600160035f8373ffffffffffffffffffffffffffffffffffffffff1673ffffffffffffffffffffffffffffffffffffffff1681526020019081526020015f205f82825403925050819055505b5f73ffffffffffffffffffffffffffffffffffffffff168573ffffffffffffffffffffffffffffffffffffffff1614610ead57600160035f8773ffffffffffffffffffffffffffffffffffffffff1673ffffffffffffffffffffffffffffffffffffffff1681526020019081526020015f205f82825401925050819055505b8460025f8681526020019081526020015f205f6101000a81548173ffffffffffffffffffffffffffffffffffffffff021916908373ffffffffffffffffffffffffffffffffffffffff160217905550838573ffffffffffffffffffffffffffffffffffffffff168273ffffffffffffffffffffffffffffffffffffffff167fddf252ad1be2c89b69c2b068fc378daa952ba7f163c4a11628f55a4df523b3ef60405160405180910390a4809150509392505050565b610f6a610d3e565b73ffffffffffffffffffffffffffffffffffffffff16610f88610963565b73ffffffffffffffffffffffffffffffffffffffff1614610fe757610fab610d3e565b6040517f118cdaa7000000000000000000000000000000000000000000000000000000008152600401610fde9190611a5c565b60405180910390fd5b565b5f60065f9054906101000a900473ffffffffffffffffffffffffffffffffffffffff1690508160065f6101000a81548173ffffffffffffffffffffffffffffffffffffffff021916908373ffffffffffffffffffffffffffffffffffffffff1602179055508173ffffffffffffffffffffffffffffffffffffffff168173ffffffffffffffffffffffffffffffffffffffff167f8be0079c531659141344cd1fd0a4f28419497f9722a3daafe3b4186f6b6457e060405160405180910390a35050565b5f73ffffffffffffffffffffffffffffffffffffffff168273ffffffffffffffffffffffffffffffffffffffff160361111c57816040517f5b08ba180000000000000000000000000000000000000000000000000000000081526004016111139190611a5c565b60405180910390fd5b8060055f8573ffffffffffffffffffffffffffffffffffffffff1673ffffffffffffffffffffffffffffffffffffffff1681526020019081526020015f205f8473ffffffffffffffffffffffffffffffffffffffff1673ffffffffffffffffffffffffffffffffffffffff1681526020019081526020015f205f6101000a81548160ff0219169083151502179055508173ffffffffffffffffffffffffffffffffffffffff168373ffffffffffffffffffffffffffffffffffffffff167f17307eab39ab6107e8899845ad3d59bd9653f200f220920489ca2b5937696c31836040516112089190611817565b60405180910390a3505050565b5f8373ffffffffffffffffffffffffffffffffffffffff163b11156113ba578273ffffffffffffffffffffffffffffffffffffffff1663150b7a02868685856040518563ffffffff1660e01b81526004016112739493929190612193565b6020604051808303815f875af19250505080156112ae57506040513d601f19601f820116820180604052508101906112ab91906121f1565b60015b61132f573d805f81146112dc576040519150601f19603f3d011682016040523d82523d5f602084013e6112e1565b606091505b505f81510361132757836040517f64a0ae9200000000000000000000000000000000000000000000000000000000815260040161131e9190611a5c565b60405180910390fd5b805160208201fd5b63150b7a0260e01b7bffffffffffffffffffffffffffffffffffffffffffffffffffffffff1916817bffffffffffffffffffffffffffffffffffffffffffffffffffffffff1916146113b857836040517f64a0ae920000000000000000000000000000000000000000000000000000000081526004016113af9190611a5c565b60405180910390fd5b505b5050505050565b5f60025f8381526020019081526020015f205f9054906101000a900473ffffffffffffffffffffffffffffffffffffffff169050919050565b808061143257505f73ffffffffffffffffffffffffffffffffffffffff168273ffffffffffffffffffffffffffffffffffffffff1614155b15611564575f61144184610c7f565b90505f73ffffffffffffffffffffffffffffffffffffffff168373ffffffffffffffffffffffffffffffffffffffff16141580156114ab57508273ffffffffffffffffffffffffffffffffffffffff168173ffffffffffffffffffffffffffffffffffffffff1614155b80156114be57506114bc8184610b04565b155b1561150057826040517fa9fbf51f0000000000000000000000000000000000000000000000000000000081526004016114f79190611a5c565b60405180910390fd5b811561156257838573ffffffffffffffffffffffffffffffffffffffff168273ffffffffffffffffffffffffffffffffffffffff167f8c5be1e5ebec7d5bd14f71427d1e84f3dd0314c0f7b2291e5b200ac8c7c3b92560405160405180910390a45b505b8360045f8581526020019081526020015f205f6101000a81548173ffffffffffffffffffffffffffffffffffffffff021916908373ffffffffffffffffffffffffffffffffffffffff16021790555050505050565b6115c483838361167c565b611677575f73ffffffffffffffffffffffffffffffffffffffff168373ffffffffffffffffffffffffffffffffffffffff160361163857806040517f7e27328900000000000000000000000000000000000000000000000000000000815260040161162f9190611b67565b60405180910390fd5b81816040517f177e802f00000000000000000000000000000000000000000000000000000000815260040161166e92919061221c565b60405180910390fd5b505050565b5f5f73ffffffffffffffffffffffffffffffffffffffff168373ffffffffffffffffffffffffffffffffffffffff161415801561173357508273ffffffffffffffffffffffffffffffffffffffff168473ffffffffffffffffffffffffffffffffffffffff1614806116f457506116f38484610b04565b5b8061173257508273ffffffffffffffffffffffffffffffffffffffff1661171a83610d05565b73ffffffffffffffffffffffffffffffffffffffff16145b5b90509392505050565b6040518060a00160405280606081526020016060815260200160608152602001606081526020015f151581525090565b5f604051905090565b5f5ffd5b5f5ffd5b5f7fffffffff0000000000000000000000000000000000000000000000000000000082169050919050565b6117b18161177d565b81146117bb575f5ffd5b50565b5f813590506117cc816117a8565b92915050565b5f602082840312156117e7576117e6611775565b5b5f6117f4848285016117be565b91505092915050565b5f8115159050919050565b611811816117fd565b82525050565b5f60208201905061182a5f830184611808565b92915050565b5f81519050919050565b5f82825260208201905092915050565b8281835e5f83830152505050565b5f601f19601f8301169050919050565b5f61187282611830565b61187c818561183a565b935061188c81856020860161184a565b61189581611858565b840191505092915050565b5f6020820190508181035f8301526118b88184611868565b905092915050565b5f82825260208201905092915050565b5f6118da82611830565b6118e481856118c0565b93506118f481856020860161184a565b6118fd81611858565b840191505092915050565b611911816117fd565b82525050565b5f60a083015f8301518482035f86015261193182826118d0565b9150506020830151848203602086015261194b82826118d0565b9150506040830151848203604086015261196582826118d0565b9150506060830151848203606086015261197f82826118d0565b91505060808301516119946080860182611908565b508091505092915050565b5f6020820190508181035f8301526119b78184611917565b905092915050565b5f819050919050565b6119d1816119bf565b81146119db575f5ffd5b50565b5f813590506119ec816119c8565b92915050565b5f60208284031215611a0757611a06611775565b5b5f611a14848285016119de565b91505092915050565b5f73ffffffffffffffffffffffffffffffffffffffff82169050919050565b5f611a4682611a1d565b9050919050565b611a5681611a3c565b82525050565b5f602082019050611a6f5f830184611a4d565b92915050565b611a7e81611a3c565b8114611a88575f5ffd5b50565b5f81359050611a9981611a75565b92915050565b5f5f60408385031215611ab557611ab4611775565b5b5f611ac285828601611a8b565b9250506020611ad3858286016119de565b9150509250929050565b5f5f5f60608486031215611af457611af3611775565b5b5f611b0186828701611a8b565b9350506020611b1286828701611a8b565b9250506040611b23868287016119de565b9150509250925092565b5f60208284031215611b4257611b41611775565b5b5f611b4f84828501611a8b565b91505092915050565b611b61816119bf565b82525050565b5f602082019050611b7a5f830184611b58565b92915050565b611b89816117fd565b8114611b93575f5ffd5b50565b5f81359050611ba481611b80565b92915050565b5f5f60408385031215611bc057611bbf611775565b5b5f611bcd85828601611a8b565b9250506020611bde85828601611b96565b9150509250929050565b5f5ffd5b5f5ffd5b7f4e487b71000000000000000000000000000000000000000000000000000000005f52604160045260245ffd5b611c2682611858565b810181811067ffffffffffffffff82111715611c4557611c44611bf0565b5b80604052505050565b5f611c5761176c565b9050611c638282611c1d565b919050565b5f67ffffffffffffffff821115611c8257611c81611bf0565b5b611c8b82611858565b9050602081019050919050565b828183375f83830152505050565b5f611cb8611cb384611c68565b611c4e565b905082815260208101848484011115611cd457611cd3611bec565b5b611cdf848285611c98565b509392505050565b5f82601f830112611cfb57611cfa611be8565b5b8135611d0b848260208601611ca6565b91505092915050565b5f5f5f5f60808587031215611d2c57611d2b611775565b5b5f611d3987828801611a8b565b9450506020611d4a87828801611a8b565b9350506040611d5b878288016119de565b925050606085013567ffffffffffffffff811115611d7c57611d7b611779565b5b611d8887828801611ce7565b91505092959194509250565b5f5f60408385031215611daa57611da9611775565b5b5f611db785828601611a8b565b9250506020611dc885828601611a8b565b9150509250929050565b7f4e487b71000000000000000000000000000000000000000000000000000000005f52602260045260245ffd5b5f6002820490506001821680611e1657607f821691505b602082108103611e2957611e28611dd2565b5b50919050565b5f606082019050611e425f830186611a4d565b611e4f6020830185611b58565b611e5c6040830184611a4d565b949350505050565b7f4552433732313a20696e76616c696420746f6b656e20494400000000000000005f82015250565b5f611e9860188361183a565b9150611ea382611e64565b602082019050919050565b5f6020820190508181035f830152611ec581611e8c565b9050919050565b5f81905092915050565b7f646174613a6170706c69636174696f6e2f6a736f6e2c7b0000000000000000005f82015250565b5f611f0a601783611ecc565b9150611f1582611ed6565b601782019050919050565b7f226e616d65223a220000000000000000000000000000000000000000000000005f82015250565b5f611f54600883611ecc565b9150611f5f82611f20565b600882019050919050565b5f819050815f5260205f209050919050565b5f8154611f8881611dff565b611f928186611ecc565b9450600182165f8114611fac5760018114611fc157611ff3565b60ff1983168652811515820286019350611ff3565b611fca85611f6a565b5f5b83811015611feb57815481890152600182019150602081019050611fcc565b838801955050505b50505092915050565b7f222c226465736372697074696f6e223a220000000000000000000000000000005f82015250565b5f612030601183611ecc565b915061203b82611ffc565b601182019050919050565b7f222c22696d616765223a220000000000000000000000000000000000000000005f82015250565b5f61207a600b83611ecc565b915061208582612046565b600b82019050919050565b7f227d0000000000000000000000000000000000000000000000000000000000005f82015250565b5f6120c4600283611ecc565b91506120cf82612090565b600282019050919050565b5f6120e482611efe565b91506120ef82611f48565b91506120fb8286611f7c565b915061210682612024565b91506121128285611f7c565b915061211d8261206e565b91506121298284611f7c565b9150612134826120b8565b9150819050949350505050565b5f81519050919050565b5f82825260208201905092915050565b5f61216582612141565b61216f818561214b565b935061217f81856020860161184a565b61218881611858565b840191505092915050565b5f6080820190506121a65f830187611a4d565b6121b36020830186611a4d565b6121c06040830185611b58565b81810360608301526121d2818461215b565b905095945050505050565b5f815190506121eb816117a8565b92915050565b5f6020828403121561220657612205611775565b5b5f612213848285016121dd565b91505092915050565b5f60408201905061222f5f830185611a4d565b61223c6020830184611b58565b939250505056fea2646970667358221220ed500e34013265e9d584a6e00eece98fb699260ccc8966a12103e8ed895fb7c664736f6c634300081e0033",
    "linkReferences": {}
  },
  "methodIdentifiers": {
    "approve(address,uint256)": "095ea7b3",
    "balanceOf(address)": "70a08231",
    "getApproved(uint256)": "081812fc",
    "getProperty()": "07751070",
    "isApprovedForAll(address,address)": "e985e9c5",
    "name()": "06fdde03",
    "owner()": "8da5cb5b",
    "ownerOf(uint256)": "6352211e",
    "renounceOwnership()": "715018a6",
    "safeTransferFrom(address,address,uint256)": "42842e0e",
    "safeTransferFrom(address,address,uint256,bytes)": "b88d4fde",
    "setApprovalForAll(address,bool)": "a22cb465",
    "supportsInterface(bytes4)": "01ffc9a7",
    "symbol()": "95d89b41",
    "tokenURI(uint256)": "c87b56dd",
    "transferFrom(address,address,uint256)": "23b872dd",
    "transferOwnership(address)": "f2fde38b"
  },
  "id": 41
}